:020000040800F2
:10000000E01E00200101000829670008554800088B
:1000100025670008D92000082D6E000800000000A8
:10002000000000000000000000000000A56B0008B8
:10003000DD220008000000002D670008A76B000803
:100040001B0100081B0100081B0100081B01000820
:100050001B0100081B0100081B0100081B01000810
:100060001B0100081B0100081B0100081B01000800
:100070001B0100081B0100081B0100081B010008F0
:100080001B0100081B0100081B0100081B010008E0
:100090001B0100081B0100081B0100081B010008D0
:1000A0001B0100081B0100081B0100081B010008C0
:1000B0001B0100081B0100081B0100081B010008B0
:1000C0001B0100081B0100081B0100081B010008A0
:1000D0001B0100081B0100081B0100081B01000890
:1000E0001B0100081B0100081B010008DFF80CD0F1
:1000F00001F0ACF800480047119E0008E01E002007
:100100000648804706480047FEE7FEE7FEE7FEE7B1
:10011000FEE7FEE7FEE7FEE7FEE7FEE7376C0008D6
:10012000ED000008202A04DB203A21FA02F0002129
:10013000704721FA02F3D040C2F1200291400843F7
:100140001946704738B5D0E90221491E01EB41013B
:1001500002EBC1014268C1EB011102EB81010268AF
:10016000C1EB011102EB8102D0E9043101EB410145
:1001700003EB81013023A1F5527191FBF3F4174D8C
:100180006C4302EBC41291FBF3F403FB14110092D5
:100190001A2902DB124B1A4400920C2291FBF2F353
:1001A000104C6343009C04EBC313009391FBF2F3E8
:1001B00002FB13110C4A08E0491E40F2A324535CD1
:1001C0006343009C04EBC31300930029F4DC014655
:1001D000684600F049FE009838BD00003F0C0F0053
:1001E0008051010067C203004CAD000840EA0103E2
:1001F0009B0703D009E008C9121F08C0042AFAD2DD
:1002000003E011F8013B00F8013B521EF9D27047A0
:10021000D2B201E000F8012B491EFBD27047002248
:10022000F6E710B513460A4604461946FFF7F0FFF5
:10023000204610BD30B505462A460B4612F8010B84
:1002400013F8014B08B1A042F8D01CB1002802D02D
:100250006D1CF1E7284630BD421C10F8011B002937
:10026000FBD1801A7047034611F8012B00F8012BCF
:10027000002AF9D1184670470246C9B200E0401C76
:100280000378002BFBD102E003788B4203D0401EA1
:100290009042F9D2002070470FB400B58DB010A97C
:1002A00009900B9000914FF0FF300A9000200C90C5
:1002B00005480690054807906A4609A80F9900F07E
:1002C0002DFE0DB05DF814FB390F0008570F000824
:1002D0002DE9FF5F1D464FF0FF3BD5E901469146F2
:1002E0005F464FF00008A9697F1C01988847296A7A
:1002F000824688470028F6D1BAF1FF3F0CD024F49B
:10030000C064002E19DD600614D5BAF12B0F09D098
:10031000BAF12D0F0ED103E0584604B0BDE8F09FAE
:1003200044F48064A9697F1C01988847761E824640
:10033000002E02DDBAF1300F03D0B9F1000F26D044
:1003400032E0A969761E44F400747F1C0198884746
:100350008246002E05DDBAF1780F06D0BAF1580FAB
:1003600003D0B9F1000F10D01EE0B9F1000F02D098
:10037000B9F1100F18D1A969761E24F400747F1CFE
:10038000019888478246102002E0082000E00A20F9
:10039000814609E008FB0908A969761E44F4007447
:1003A0007F1C019888478246002E05DD494650464D
:1003B00000F0A0FD0028EDDAE96901988847A00562
:1003C00002D46FF00100A8E7E00725D1600613D53D
:1003D000600502D5C8F1000000E0404629680A1D0A
:1003E0002A600968220501D5087015E0220701D5A9
:1003F000088011E008600FE02868011D296000688E
:10040000210502D580F8008006E0210702D5A0F87A
:10041000008001E0C0F8008038467EE72DE9FF5FEC
:10042000D2E901A74FF00008916999461446DDF81A
:1004300038B0464601988847054659EA0B0005D072
:1004400009E0A169761C019888470546216A28467B
:1004500088470028F5D1681C03D05FEACA7005D030
:1004600015E04FF0FF3004B0BDE8F09F2068011D9B
:100470002160D0F800800AE05FEACA7001D108F874
:10048000015BA169761C7F1E019888470546002FF5
:100490001ADD681C18D0B9F1000F0DD0E81705EB74
:1004A000D060421120F01F0059F822102A1A0120B2
:1004B00090400142E0D107E0BBF1000FDCD1216A9E
:1004C000284688470028D7D0E16901988847BBF1C2
:1004D000000F07D1002E05DD5FEACA7002D10021AE
:1004E00088F80010A068B84203DDBBF1000F03D00C
:1004F00017B16FF00100B6E73046B4E72DE9FF4FC2
:10050000087883B09946FF2805D0491C2D2804D0CF
:100510000024002008E000200BE00124F9E700EBB4
:10052000800003EB4000491C0B78FF2BF7D104B18E
:10053000404200230293147819461D462D2C01D009
:100540002B2C04D1521C2D2C13D000240294AA462B
:100550001478FF2C0FD00A25A3FB057801FB058139
:100560004FF0000C03FB0C11521CE3194AEB010184
:10057000EEE70124EAE7814453EA010002D019F5CD
:10058000C87F06DA03980021C0E9001107B0BDE872
:10059000F08F0025AE4E2F46DFF8B882184600F0E7
:1005A000ECFDCDE90001B9F1000002DAC9F1000467
:1005B00000E004460023A74A1AEB030B42EB045A5F
:1005C00012E0E00707D02A4633463846414600F09D
:1005D0005CFA074688462A4633461046194600F01C
:1005E00054FA05460E466410002CEAD1DDE90001FC
:1005F000B9F1000F5A46534606DA00F0B8FA3A4607
:10060000434600F0B4FA05E000F03FFA3A464346AC
:1006100000F03BFA029A0AB181F00041039AC2E964
:100620000001B3E72DE9FF4F1F468DB0D7E9014622
:100630004FF0FF382E2045464FF000090B90B96966
:100640006D1C0E988847396A824688470028F6D183
:10065000BAF1FF3F0AD024F4D064002E11DDBAF1C4
:100660002B0F08D0BAF12D0F0BD102E0404611B08C
:100670008DE744F48064B9696D1C0E988847824602
:10068000761E6946600501D52D2000E02B208DF8EF
:10069000000001F1010B0DF1200809E0B9696D1CA2
:1006A0000E98884782460F9844F40074761E0560C1
:1006B000002E02DDBAF1300FF0D00B998A453ED101
:1006C00044F0800406E00F99681CA9F1010944F484
:1006D00000740860B9696D1C761E0E9888478246C2
:1006E0003028F0D02BE00B998A4505D1200603D4A1
:1006F00044F08004761E18E0504606F037FD08B33B
:100700000DF11301761E44F400748B4508D2AAF152
:1007100030000BF8010B200607D5A9F1010003E01A
:10072000200602D409F101008146A00502D50F99E7
:10073000681C0860B9696D1C0E9888478246002EB7
:10074000D1DC53E0002E51DDBAF1650F02D0BAF1D1
:10075000450F4BD1A00549D5B9696D1C24F44074EF
:10076000761E0E9888478246002E0CDD2B2804D07A
:10077000BAF12D0F07D144F48074B9696D1C0E983D
:1007800088478246761EE00501D52D2100E02B2109
:1007900008F8011BCDF82C8021E00DF12901761E0F
:1007A00044F4007488450CD2AAF1300010F0FF0028
:1007B00088F8000002D10B99884509D908F1010891
:1007C00006E0E00501D5244801E042F20F708146C1
:1007D000B9696D1C0E98884782460F980560002EF7
:1007E00004DD504606F0C2FC0028D6D1F9690E9807
:1007F0008847FF208BF8000088F800000020069052
:1008000007904B466A4608A906A8FFF777FEA005A1
:1008100002D46FF001002AE714F0240F0AD0E00799
:1008200014D1DDE906123868031D3B600068C0E999
:1008300000120BE0DDE9060100F0E9FC0146E007EB
:1008400004D13868021D3A600068016028460EE74E
:10085000000014400000F03FF1D8FFFF80EA0102E1
:1008600010B502F00043400022D04A001FD0010E14
:1008700001EB1261C0F35600C2F3560240F40000CF
:1008800042F40002A0FB022000047F39140400D0CF
:10089000401C50EA124001D44000491EC2B20C066E
:1008A00004EBD010401C4008802A02D003E0002056
:1008B00010BD20F00100002900DA0020184310BD0F
:1008C00030B480EA010202F0004530F0004221F02D
:1008D000004013D090B1C30DD40DC2F31601C0F384
:1008E0001600E41A41F4000140F400027D34914204
:1008F00001D3641C00E04900002C02DA30BC002067
:1009000070474FF400000023914201D3891A03433A
:1009100040084FEA4101F7D151B1914202D14FF065
:10092000004105E002D24FF0010101E06FF001014A
:1009300003EBC450284430BC00F01EBB2DE9FE4F31
:10094000804681EA0300C00F0C46009021F0004170
:1009500023F00045B8EB0200A94105D240462146EC
:1009600090461C460B46024623F00040104347D0F9
:10097000270DC7F30A00C3F30A510290401A0190F1
:1009800040286BDAC3F3130040F4801B00989246B2
:1009900020B10023D2EB030A63EB0B0B01985946FD
:1009A000C0F14002504600F038FA06460D46504667
:1009B0005946019A00F040FA10EB0800614100240A
:1009C00087EA115284EAE7731A4340D0009A62B36F
:1009D000019A012A4FEA075215DC001B61EB020164
:1009E0004FF0004202EA0752CDE90042001C41F5F7
:1009F000801132462B4600F069FB03B0BDE8F08F52
:100A000040462146F9E7001B61EB0201001C41F55D
:100A1000801300185B412018A2F5001747EB030173
:100A200040EAD570B6196D4111E06D084FEA3606FF
:100A300045EAC0754FEA0752001B61EB0201001C3A
:100A400041F5801149084FEA300000195141324602
:100A50002B4603B0BDE8F04F00F029BB00980122FF
:100A600040000023D0EB020263EBE07300982146C4
:100A70004FEAE074B8EB000061EB0401E9E783F0B2
:100A800000435BE781F0004158E72DE9FE4F81EA22
:100A9000030404F0004421F0004100944FF0000BE7
:100AA00023F0004350EA01045ED052EA03045BD015
:100AB000C3F30A54C1F30A552C44A4F2F33401944D
:100AC000A0FB0254C1F3130141F48011C3F31303DB
:100AD00043F4801301FB024400FB034E840A970A8F
:100AE00044EA815447EA8357A4FB076802958D0ABC
:100AF00005FB07854FEA932C04FB0C542705029D48
:100B00004FEA065847EA1637B5EB08056EEB070CB7
:100B1000870E920E47EA811742EA8312A7FB020171
:100B2000B6EB0B0164EB00042B0D43EA0C335E18AB
:100B300044EB1C50DA465146E7FB0201C5F31304AF
:100B40004FEA0B3343EA14534FEA0432019C43EA61
:100B50000603A4F10C040294009CCDE900B400F05B
:100B6000B5FA03B0BDE8F08F00200146F9E72DE9A2
:100B7000F04D81EA030404F0004B21F000451446D7
:100B80004FF0000A23F0004150EA050220D054EA59
:100B900001021DD0C5F30A570246C5F31303C1F382
:100BA0001300C1F30A5640F4801543F48013A7EBF9
:100BB0000608101BD64608F2FD3873EB050002D379
:100BC00008F1010801E092185B41B8F1000F03DA67
:100BD00000200146BDE8F08D00204FF4801106464C
:100BE00084460EE0171B73EB050705D3121B63EB5E
:100BF000050306434CEA010C49084FEA30009218FD
:100C00005B4150EA0107EDD152EA030012D082EABB
:100C1000040083EA0501084305D0101BAB4106D24E
:100C20000122002306E000224FF0004302E06FF0B3
:100C3000010253101AEB06004CEB085110EB0A00AE
:100C400041EB0B01BDE8F04D00F031BA96230022D4
:100C5000114600F09AB90EB5C10F80EAE070084461
:100C6000CA07002140F233438DE80E000A460B46C6
:100C700000F02CFA03B000BD0EB540F233410291F2
:100C80000021CDE900110A460B4600F01FFA03B01F
:100C900000BD20F00040C10DC0F3160040F400007C
:100CA0007F2901DA00207047962903DCC1F1960103
:100CB000C840704796398840704770B5C1F30A52F2
:100CC00001F000450024C1F3130140F2FF3341F469
:100CD00080119A4201DA002070BD40F233439A42FB
:100CE000A2F2334203DC5242FFF71CFA00E09040CC
:100CF0002C43F1D0404270BDC1F30A5210B5C1F38C
:100D0000130140F2FF3341F480119A4201DA0020CE
:100D100010BD40F233439A42A2F2334203DC524206
:100D2000FFF700FA10BD904010BD000030B5041E62
:100D300071F1000404DB4FF00044404264EB010118
:100D4000141E73F1000405DB1C464FF000435242B1
:100D500063EB04038B4208BF824230BD30B5041EF2
:100D600071F1000404DB4FF00044404264EB0101E8
:100D7000141E73F1000405DB1C464FF00043524281
:100D800063EB0403994208BF904230BD30B50B4677
:100D9000014600202022012409E021FA02F59D42AB
:100DA00005D303FA02F5491B04FA02F52844151E7F
:100DB000A2F10102F1DC30BD2DE9F05F0546002013
:100DC00092469B4688460646814640241BE02846BC
:100DD000414647462246FFF7A5F953465A46C01AF0
:100DE000914110D311461846224600F016F82D1AEC
:100DF00067EB01084F4622460120002100F00DF864
:100E000017EB00094E41201EA4F10104DFDC484627
:100E100031462A464346BDE8F09F202A04DB203AAB
:100E200000FA02F1002070479140C2F1200320FA3D
:100E300003F3194390407047202A06DBCB17203A72
:100E400041FA02F043EAE07306E041FA02F3D040CF
:100E5000C2F120029140084319467047014900F051
:100E600003B80000B00E002010B500683C22B0FBB3
:100E7000F2F302FB1303B0FBF2F00B60B0FBF2F3F2
:100E800002FB1303B0FBF2F018224B60B0FBF2F34D
:100E900002FB1303B0FBF2F0021D8B600723B2FBD1
:100EA000F3F403FB1422800040F2B55300F66C30DB
:100EB0008A61B0FBF3F2B0FBF3F403FB140044329D
:100EC00080084A61C8613B2802D3920700D0401CC9
:100ED0000022074C13460A61E25C824203D8801A62
:100EE0005B1C0B61F8E7401CC860084610BD0000A1
:100EF00058AD00083A2800D2303820F02002412AAC
:100F000001D3A2F13700884201D34FF0FF30704780
:100F1000026811441378016018467047D160044993
:100F200051610449116200211161114600F0A6B916
:100F3000110F000871120008426842B1016811F8EF
:100F4000013B23B1521EC0E900121846704701212F
:100F5000C160881E704742685AB1C368016843B9CE
:100F600083688B4205D0491E521CC0E90012002044
:100F700070474FF0FF3070470029A8BF7047401CF2
:100F8000490008BF20F00100704710B4B0FA80FC9F
:100F900000FA0CF050EA010404BF10BC704749B1DC
:100FA000CCF1200421FA04F411FA0CF118BF01214C
:100FB00021430843A3EB0C01CB1D4FEA00614FEA2C
:100FC000102042BF002010BC704700EBC3501044FB
:100FD0000029A4BF10BC7047401C490008BF20F086
:100FE000010010BC7047F0B480EA0102D40F420047
:100FF000B2EB410F02D20246084611464A0042D0E7
:10100000C30DDDB2C1F3C752AD1A202D35DAC1F3DD
:10101000160141F4000204B15242C5F1200602FA61
:1010200006F12A411044B3EBD05F23D0C4B1012DA7
:10103000A0EBC35009DCF0BC4FF0004202EAC352FF
:10104000DBB200F50000FFF7A0BF400000F18070A8
:1010500000EBC350A0F1807040EAD170490009E074
:10106000490841EAC071A0EBC35000F500004008F8
:1010700000EBC350F0BCFFF77FBF6142012202EBDF
:101080004101001BF6E7F0BC704781F00041AAE780
:1010900080F00040A7E7420005D0C0F3C75252429B
:1010A000914201DC0020704700EBC150704710B541
:1010B000141E73F1000408DA401C41F1000192187B
:1010C0005B411A4301D120F0010010BD2DE9F04D24
:1010D00092469B4611B1B1FA81F202E0B0FA80F279
:1010E00020329046FFF799FE04460F4640EA0A0078
:1010F00041EA0B0153465A46084313D0114653EABE
:10110000010019D0C8F140025046FFF70BF8054620
:101110000E46504659464246FFF77FFE084305D02B
:10112000012004E020463946BDE8F08D002005434B
:1011300046EAE0762C4337430A986305E40AA0EBBD
:1011400008000022FD0A44EA47540A3002D5002074
:101150000146E9E7010510196941DDE90845001973
:101160006941BDE8F04DA2E7C10F80EAE070084494
:10117000CA0796230021FFF708BF0EB540F233429D
:1011800002920022CDE900221346FFF79FFF03B031
:1011900000BDC1F30A52C1F3130140F2FF3341F421
:1011A00080119A4202DA00200146704740F2334330
:1011B0009A42A2F2334202DC5242FEF7B3BFFFF77B
:1011C0002CBE10B500F0004420F00040C20DC0F36A
:1011D000160040F400007F2A07DA7D2A00DA7D221B
:1011E000763A00FA02F1002008E0962A09DCA2F122
:1011F000760100FA01F1C2F19602D040FFF7BCFE81
:1012000001E0963A9040002C00D0404210BD01F021
:10121000004330B421F0004150EA010206D00A0D2B
:10122000A2F56072C1F31301002A02DC30BC002079
:101230007047440F44EAC104C100E01830BC00EB21
:10124000C250FFF799BE002070470000064C074DC2
:1012500006E0E06840F0010394E807009847103486
:10126000AC42F6D3FEF746FFA4AD0008C4AD0008BB
:10127000C0B24FF4F05100F097B900002DE9F34FE0
:101280008BB04FF0000801F10C000C464FF0010B41
:1012900046460DF1080A01906269012101989047C4
:1012A000051E2DD0252D2CD0216A8847C0B162693A
:1012B000012101989047216A88470028F7D1411EF3
:1012C00062690198904700E0761CA1690B988847F5
:1012D000216A88470028F7D1E1690B988847DBE746
:1012E000A1690B9888470746A84201D1761CD3E72D
:1012F000E1690B9888477F1C02D1B8F1000F6FD0CD
:1013000046E1002762693D463946019890472A2800
:1013100004D162690121019890470125DFF8849288
:101320006269012101989047A0F130010A290AD28F
:101330004F45E5DC07EB870100EB4107303FDFD489
:1013400045F01005ECE7E90601D46FF000476C2882
:101350000AD04C2814D0682815D06A280DD07428DB
:101360001CD07A281AD01DE06269012101989047AB
:101370006C2802D045F0040514E045F002050DE0AC
:1013800045F020050AE0626901210198904768282C
:1013900002D045F0080505E045F4006562690121C9
:1013A00001989047C4E9015765283DD019DC5828B9
:1013B0007AD00CDC452837D004DC252826D04128FB
:1013C00031D131E046282FD047282CD12CE05B28A2
:1013D00077D0612828D063287CD0642823D15AE0B4
:1013E000D0E06F2848D008DC66281DD067281BD0C5
:1013F000692821D06E2816D127E0702845D073289F
:1014000068D0752847D078280DD14DE0A1690B9898
:101410008847054625283FF469AFE1690B9888475E
:101420006D1C3FF46AAFB3E023466A466FF00100DB
:101430000B99FFF7F7F89EE045F040006060A807C1
:1014400023464FF0000236D43EE0E8077FF447AF72
:101450002068011D21600068290501D506701BE781
:10146000290701D5068017E7A90703D5F117C0E9B9
:10147000006111E706600FE745F040006060A807D3
:1014800023464FF0080216D41EE040F60E0125EA6E
:101490000100606016E045F040006060A807234648
:1014A0004FF00A0207D40FE045F040006060A80743
:1014B00008D5234610226FF001000B99AFF300808E
:1014C00059E007E0234610226FF001000B99FEF768
:1014D000FFFE50E04FF000094F464B46632802D014
:1014E0005B2806D040E0E80601D40120A060012777
:1014F0003AE062690121019890475E2805D14FF0DA
:1015000001096269494601989047216939B900216A
:101510000A46534643F82120491C0829FADBB0B398
:10152000216969B9C11700EBD16253110AEB83013C
:1015300022F01F02821A01200B68904003430B60C7
:1015400062690121019890475D28E8D1B9F1000F47
:1015500009D00020514651F82020D24341F82020E4
:10156000401C0828F7DB02AB224600976FF0010011
:101570000B99FEF753FF00280CDA401C08D1BBF191
:10158000000F05D04FF0FF300DB0BDE8F08FFFE742
:101590004046F9E7E90701D108F1010806444FF098
:1015A000000B79E6CCCCCC0C7F2801D9002208E0D6
:1015B000064A02EB5002C007127800D1120902F06D
:1015C0000F020120904008407047000064AD000801
:1015D00070B58C1810F8015B15F0070301D110F8F5
:1015E000013B2A1106D110F8012B03E010F8016B22
:1015F00001F8016B5B1EF9D12B0705D40023521EA5
:101600000DD401F8013BFAE710F8013BCB1A921C0C
:1016100003E013F8015B01F8015B521EF9D5A1420A
:10162000D8D3002070BD00003EB503F0DDFB04F010
:1016300031FA002202A92E4802F08EF99DF8080026
:101640008DF800009DF809008DF801009DF80A0052
:101650001430C0B28DF8020000226946244802F01E
:101660007DFA2448006840F00400224908600846DA
:10167000006840F0080008605C211FA0FEF7FCFD38
:1016800028B15C211CA0FEF7F7FD401C00E01AA069
:1016900005462F21FEF7F0FD002811D05C2116A091
:1016A000FEF7EAFD28B15C2113A0FEF7E5FD401C22
:1016B00000E011A005462F21FEF7DEFD401C0BE0E7
:1016C0005C210DA0FEF7D8FD28B15C210AA0FEF731
:1016D000D3FD401C00E008A004461E2221460EA0B7
:1016E00005F0A6FB642000F0FDFD01F0B5FC3EBD59
:1016F00048030020007000402E2E5C6170706C6901
:10170000636174696F6E5C4170705F4C6F775F509E
:101710006F7765722E6300005B25733A25645DD791
:10172000BCB1B8BDF8C8EBB5CDB9A6BAC40D0A00B6
:1017300070B503F063FB04F0BBF95C211AA0FEF75F
:101740009BFD28B15C2118A0FEF796FD401C00E02F
:1017500015A005462F21FEF78FFD002811D05C2132
:1017600011A0FEF789FD28B15C210FA0FEF784FDD2
:10177000401C00E00CA005462F21FEF77DFD401C1B
:101780000BE05C2108A0FEF777FD28B15C2106A0E4
:10179000FEF772FD401C00E003A004462B22214608
:1017A00009A005F045FB70BD2E2E5C6170706C6960
:1017B000636174696F6E5C4170705F4C6F775F50EE
:1017C0006F7765722E6300005B25733A25645DCDEB
:1017D000CBB3F6B5CDB9A6BAC40D0A002DE9F843CE
:1017E00000F0D2FF044600F0D5FF054600F0D8FF18
:1017F00080462B46424646A14948009405F028FB06
:1018000006F076FA0746464A46A1384606F024FA1C
:101810004348D0E90E43224644A1384606F0FEF97B
:101820003F48D0E90A43224641A1384606F0F6F97E
:101830003B4A40323FA1384606F00EFA384A303271
:101840003EA1384606F008FA354A42323DA13846F4
:1018500006F002FA3249886DFFF70EFA0446224676
:101860000B463BA1384606F0D9F9384606F0A4FAF3
:1018700006463046FEF7F0FC00B22949A1F85C02AA
:101880000846B0F95C2231465C30FEF7AFFC5C21C3
:1018900032A0FEF7F1FC28B15C2130A0FEF7ECFC91
:1018A000401C00E02DA005462F21FEF7E5FC002896
:1018B00011D05C2129A0FEF7DFFC28B15C2127A014
:1018C000FEF7DAFC401C00E024A005462F21FEF7BD
:1018D000D3FC401C0BE05C2120A0FEF7CDFC28B11E
:1018E0005C211EA0FEF7C8FC401C00E01BA00446C3
:1018F0000B4B5C337822214620A005F099FA38463C
:1019000006F01CFA304606F061FABDE8F8830000E4
:101910002530385825303858253038580000000018
:10192000500C002075756964000000006C61740043
:101930006C6F6E006C617444697200006C6F6E4471
:10194000697200006461746554696D65000000008F
:1019500073746570436F756E740000002E2E5C61A9
:1019600070706C69636174696F6E5C4170705F4C1C
:101970006F636174696F6E2E630000005B25733ABC
:1019800025645D6A736F6E5F7374723A25730D0A16
:10199000000000002DE9F04F95B003F03BFA002065
:1019A000149082E003F04AFADE48008800287CDDCB
:1019B00000200990DCA1DE48FEF73CFC149009AA47
:1019C000DCA11498FEF768FC9DF82400412836D16C
:1019D0005C21DBA0FEF750FC28B15C21D8A0FEF70B
:1019E0004BFC401C00E0D6A005462F21FEF744FC2E
:1019F000002811D05C21D2A0FEF73EFC28B15C216A
:101A0000CFA0FEF739FC401C00E0CDA005462F21F9
:101A1000FEF732FC401C0BE05C21C9A0FEF72CFC59
:101A200028B15C21C6A0FEF727FC401C00E0C4A042
:101A300004461D222146CAA005F0FAF936E05C21D1
:101A4000BFA0FEF719FC28B15C21BDA0FEF714FC75
:101A5000401C00E0BAA005462F21FEF70DFC88B11E
:101A60005C21B7A0FEF708FC28B15C21B4A0FEF70A
:101A700003FC401C00E0B2A005462F21FEF7FCFB52
:101A8000401C0BE05C21AEA0FEF7F6FB28B15C2108
:101A9000ABA0FEF7F1FB401C00E0A9A00446232206
:101AA0002146B7A005F0C4F900BF7BE700BF10A82E
:101AB0000AA90CAA0BABCDE90032CDE902100EAB9E
:101AC00012AAB7A11498FEF7E7FB5C219CA0FEF7D1
:101AD000D3FB28B15C219AA0FEF7CEFB401C00E0AE
:101AE00097A005462F21FEF7C7FB88B15C2194A083
:101AF000FEF7C2FB28B15C2191A0FEF7BDFB401CA4
:101B000000E08FA005462F21FEF7B6FB401C0BE03E
:101B10005C218BA0FEF7B0FB28B15C2188A0FEF70A
:101B2000ABFB401C00E086A0044610A89DF82810DE
:101B3000CDE90610DDE90C01CDE904019DF82C008A
:101B40000290DDE90E0112AB3322CDE900012146FE
:101B50009EA005F06DF99DF84D009DF84C109DF884
:101B60004B209DF84A30CDE90632CDE908109DF8AA
:101B700049009DF848109DF841209DF84030CDE97E
:101B80000232CDE904109DF843009DF84210CDE9E2
:101B900000109DF845309DF844209CA1A34805F015
:101BA00057F9A249084600F0ADFA0022A04BDDE942
:101BB0000E01FEF7DCFF8046FFF79EF8C0B26421FD
:101BC00048430790FFF747F80646DDE90E23FEF786
:101BD00059FF04460022974BFEF7C9FF82468B4609
:101BE0000022934BDDE90E01FEF7C1FF0446FFF72B
:101BF00083F8C6B23046FFF73FF852465B46CDE960
:101C00000801FEF79BFE894A423AC2E90E01002212
:101C1000874BDDE90C01FEF7AAFF0646FFF76CF8DB
:101C2000C0B2642100FB01FA5046FFF714F8804669
:101C3000DDE90C23FEF726FF044600227D4BFEF76C
:101C400096FF00227A4BCDE90801DDE90C01FEF791
:101C50008EFF0546FFF750F8C4B22046FFF70CF898
:101C6000CDE90601DDE90823FEF768FE6F4A423A36
:101C7000C2E90A019DF82C00114681F840009DF848
:101C8000280081F830005C212DA0FEF7F5FA28B17C
:101C90005C212BA0FEF7F0FA401C00E028A00546CE
:101CA0002F21FEF7E9FA88B15C2125A0FEF7E4FABE
:101CB00028B15C2122A0FEF7DFFA401C00E020A042
:101CC00005462F21FEF7D8FA401C0BE05C211CA032
:101CD000FEF7D2FA28B15C2119A0FEF7CDFA401C1C
:101CE00000E017A004465148423890F830004F49B0
:101CF000423991F84010CDE904104C494239D1E9FC
:101D00000A01CDE9020149484238C16B806B474B5B
:101D10005022CDE90001214647A005F089F815B011
:101D2000BDE8F08F2600002024474E524D430000AE
:101D30008C060020252A5B5E41565D25630000006D
:101D40002E2E5C6170706C69636174696F6E5C41AA
:101D500070705F4C6F636174696F6E2E630000007A
:101D60005B25733A25645DBBF1C8A1B5BDD3D0D066
:101D7000A7B5C4B6A8CEBBCAFDBEDD0D0A000000E3
:101D80005B25733A25645DBBF1C8A1B5BDCEDED03D
:101D9000A7B5C4B6A8CEBBCAFDBEDD0D0A000000C3
:101DA00024474E524D432C253663252A36632C2575
:101DB0006C662C25632C256C662C25632C252A66E5
:101DC0002C252A662C253663000000005B25733A1B
:101DD00025645D74696D653A25732C6C61743A25D0
:101DE0006C662C6C61745F6469723A25632C6C6F4D
:101DF0006E3A256C662C6C6F6E5F6469723A25636F
:101E00002C646174613A25730D0A00003230256339
:101E100025632D256325632D2563256320256325F3
:101E2000633A256325633A2563256300920C0020FD
:101E30000000594000004E405B25733A25645D6404
:101E400061746574696D653A25732C6C61743A250B
:101E50006C662C6C6F6E3A256C662C6C61744469F0
:101E6000723A25632C6C6F6E4469723A25630D0AD1
:101E70000000000038B503F00DF90020009068461E
:101E800003F0EAF81D49009888655C211CA0FEF764
:101E9000F3F928B15C211AA0FEF7EEF9401C00E02E
:101EA00017A005462F21FEF7E7F9002811D05C2185
:101EB00013A0FEF7E1F928B15C2111A0FEF7DCF9CF
:101EC000401C00E00EA005462F21FEF7D5F9401C6E
:101ED0000BE05C210AA0FEF7CFF928B15C2108A035
:101EE000FEF7CAF9401C00E005A0044603485D2245
:101EF0002146836D0AA004F09BFF38BD500C0020E2
:101F00002E2E5C6170706C69636174696F6E5C41E8
:101F100070705F4C6F636174696F6E2E63000000B8
:101F20005B25733A25645D737465703A25640D0A08
:101F3000000000002DE9F04103F0DAFD4F48B0F851
:101F40005C0281B24D485C3003F0A2FE0546002DD4
:101F500036D15C214AA0FEF78FF928B15C2148A058
:101F6000FEF78AF9401C00E045A006462F21FEF747
:101F700083F9002811D05C2141A0FEF77DF928B13A
:101F80005C213FA0FEF778F9401C00E03CA006462B
:101F90002F21FEF771F9401C0BE05C2138A0FEF701
:101FA0006BF928B15C2136A0FEF766F9401C00E011
:101FB00033A004468D22214639A004F039FF5BE0AE
:101FC0005C212FA0FEF758F928B15C212CA0FEF768
:101FD00053F9401C00E02AA007462F21FEF74CF9D8
:101FE00088B15C2126A0FEF747F928B15C2124A026
:101FF000FEF742F9401C00E021A007462F21FEF722
:102000003BF9401C0BE05C211DA0FEF735F928B11F
:102010005C211BA0FEF730F9401C00E018A006462A
:102020009122314625A004F003FF03F053F9002468
:1020300011E0C4EB042211495C315018FF2103F078
:10204000FDFB601CC4B20D48B0F85C02FF3800B262
:102050000A49A1F85C020948B0F95C02FF28E8DCF3
:10206000064AB2F85C2291B2C4EB0423034A5C3204
:10207000981803F0E3FB00BFBDE8F081500C00208E
:102080002E2E5C6170706C69636174696F6E5C4167
:1020900070705F4C6F636174696F6E2E6300000037
:1020A0005B25733A25645D494F54B7A2CBCDCAFD79
:1020B000BEDDB3C9B9A60D0A000000005B25733A66
:1020C00025645D494F54B7A2CBCDCAFDBEDDCAA77A
:1020D000B0DC0D0A0000000000BFFEE710B50446AA
:1020E000204600F0FFF810BD10B5044603E04FF4A1
:1020F0007A7000F0F7F8201EA4F101018CB2F6D13D
:1021000010BD00002DE9F04196B006460D4605A829
:1021100006A907AA08ABCDE90032CDE9021009AB48
:102120000AAA4FA13046FEF7B7F80A98A0F26C70E1
:1021300010900998401E0F9008980E9007980D90E7
:1021400006980C9005980B900BA8FDF7FBFF0490E8
:10215000049800F5E14004905C2146A0FEF78CF85D
:1021600028B15C2143A0FEF787F8401C00E041A0A5
:1021700080462F21FEF780F888B15C213DA0FEF754
:102180007BF828B15C213BA0FEF776F8401C00E00C
:1021900038A080462F21FEF76FF8401C0BE05C2131
:1021A00034A0FEF769F828B15C2132A0FEF764F88C
:1021B000401C00E02FA007463322394633A0049B81
:1021C00004F036FE04A8FEF749FE044694E80B002E
:1021D000E268CDE90023CDE902102069431C606963
:1021E00000F26C722FA1284604F032FE5C2121A07F
:1021F000FEF742F828B15C211EA0FEF73DF8401C16
:1022000000E01CA080462F21FEF736F888B15C2143
:1022100018A0FEF731F828B15C2116A0FEF72CF8C3
:10222000401C00E013A080462F21FEF725F8401C3B
:102230000BE05C210FA0FEF71FF828B15C210DA078
:10224000FEF71AF8401C00E00AA007462B46382289
:1022500039461CA004F0ECFD16B0BDE8F08100008A
:1022600025642D25642D25642025643A25643A25AE
:10227000640000002E2E5C636F6D6D6F6E5C436FAB
:102280006D5F546F6F6C2E63000000005B25733A26
:1022900025645D555443CAB1BCE4B4C1A3BA256CEE
:1022A000640D0A00253034642D253032642D25302C
:1022B000326420253032643A253032643A25303297
:1022C000640000005B25733A25645DB1B1BEA9CA04
:1022D000B1BCE4A3BA25730D0A000000704772B6C2
:1022E00000BFFEE770B5044600F048FA06462546F2
:1022F000681C10B104480078054400BF00F03EFAA5
:10230000801BA842FAD370BD080000202DE9F041DF
:1023100002460B46002080E00127874007EA0301C0
:10232000002979D0404F4FEA900C57F82C4087078E
:102330004FEA177C0F2707FA0CF73C403B4FBA4295
:1023400001D100270FE03A4FBA4201D101270AE03C
:10235000384FBA4201D1022705E0374FBA4201D1C6
:10236000032700E004274FEA807C4FEA1C7C07FA31
:102370000CF7A74231D1314F3F688F43DFF8BCC023
:10238000CCF800700CF104073F688F430CF1040C8B
:10239000CCF80070294F0C373F688F43DFF89CC0A2
:1023A0000CF10C0CCCF80070ACF104073F688F43C3
:1023B000ACF1040CCCF8007087074FEA177C0F27AC
:1023C00007FA0CF4184F4FEA900C57F82CC02CEA7F
:1023D000040C4FEA900847F828C0FF2901D8174697
:1023E00000E0171D3D46FF2901D8870002E0A0F15B
:1023F0000807BF003E462F684FF00F0C0CFA06FC92
:1024000027EA0C074FF0040C0CFA06FC47EA0C070D
:102410002F60D7688F43D760401C23FA00F7002F46
:102420007FF47AAFBDE8F081080001400008014068
:10243000000C014000100140001401400004014064
:102440002DE9F8470346002294466EE14FF001085B
:1024500008FA02F4D1F8008008EA0400A0427DD115
:10246000DFF8DCA2D1F80480A8EB0A09D0453AD005
:1024700014DCB8F1030F50D009DCB8F1000F31D0F3
:10248000B8F1010F1CD0B8F1020F49D120E0B8F12A
:10249000110F18D0B8F1120F42D11EE0B9F5881F04
:1024A00025D006DCB9F5803F20D0B9F5801F37D1A3
:1024B0001AE0B9F5001F18D0B9F5041F30D117E0A4
:1024C000D1F80CC02DE0D1F80C8008F1040C28E004
:1024D000D1F80C8008F1080C23E0D1F80C8008F149
:1024E0000C0C1EE000BF00BF00BF00BF00BF00BF5C
:1024F000D1F80880B8F1000F02D14FF0040C0BE0C6
:10250000D1F80880B8F1010F03D14FF0080C1C611D
:1025100002E04FF0080C5C6103E04FF0000C00E0BB
:1025200000BF00BFFF2801D8984601E003F104086E
:102530004646FF2802D84FEA820803E0A2F10808C5
:102540004FEA88084746D6F800804FF00F0909FA8D
:1025500007F928EA09080CFA07F900E088E048EAD8
:102560000908C6F80080D1F8048008F08058B8F156
:10257000805F7DD100BFDFF8CC81D8F8188048F0AB
:102580000108DFF8C091C9F81880C846D8F818804B
:1025900008F00108CDF8008000BF00BF4FEAB9384D
:1025A0004FEA920958F829504FEA82784FEA187991
:1025B0004FF00F0808FA09F825EA0805DFF88881C6
:1025C000434502D14FF0000816E0DFF88081434513
:1025D00002D14FF001080FE0DFF87481434502D1CA
:1025E0004FF0020808E0DFF86C81434502D14FF05C
:1025F000030801E04FF004084FEA82794FEA1979A5
:1026000008FA09F848EA0505DFF84C814FEA920913
:1026100048F82950D1F8048008F48018B8F5801FD4
:102620000AD1DFF83881D8F8008048EA0008DFF8DE
:102630002C91C9F8008009E0DFF82081D8F80080EB
:1026400028EA0008DFF81491C9F80080D1F8048066
:1026500008F40018B8F5001F10D1DFF8008108F168
:102660000408D8F8008048EA0008DFF8F09000E09D
:102670005AE009F10409C9F800800DE0DFF8DC80B8
:1026800008F10408D8F8008028EA0008DFF8CC90A8
:1026900009F10409C9F80080D1F8048008F4003871
:1026A000B8F5003F0ED1DFF8B480A8F10408D8F8DF
:1026B000008048EA0008DFF8A490A9F10409C9F8ED
:1026C00000800DE0DFF89480A8F10408D8F80080BD
:1026D00028EA0008DFF88490A9F10409C9F800800D
:1026E000D1F8048008F48038B8F5803F0ED1DFF8C7
:1026F0006C80A8F10808D8F8008048EA0008DFF8E4
:102700005C90A9F10809C9F800800DE0DFF84C8061
:10271000A8F10808D8F8008028EA0008DFF83C9003
:10272000A9F10809C9F80080521CD1F8008028FAE4
:1027300002F8B8F1000F7FF489AEBDE8F887000019
:10274000000011100010024000080140000C014080
:10275000001001400014014008000140080401403D
:10276000024693680B400BB1012000E00020704747
:102770000AB1016101E00B04036170470148006880
:10278000704700000000002001480068704700000A
:10279000E8F7FF1F0148006870470000ECF7FF1FD3
:1027A0000148006870470000F0F7FF1F70B504464D
:1027B0000CB9012070BD94F83D0028B9002084F8C0
:1027C0003C00204600F046FB242084F83D002068B1
:1027D000006820F00100216808602068006840F46B
:1027E0000040216808602068006820F400402168EB
:1027F000086000F027FE05465C496068884206D8FC
:102800005B48854201D2012007E0002005E05948DD
:10281000854201D2012000E00020012800D1C9E753
:102820005548B5FBF0F62068406820F03F00304383
:10283000216848604D496068884201D8701C07E0F3
:102840004FF4967070434FF47A71B0FBF1F0401C76
:102850002168096A21F03F01084321680862434961
:102860006068884214D8681E61684900B0FBF1F0C6
:10287000401CC0F30B00042801D204203DE0681E78
:1028800061684900B0FBF1F0401CC0F30B0034E07C
:10289000A06838B9681E616801EB4101B0FBF1F036
:1028A000401C0AE0681E616801EBC10202EB0111E5
:1028B000B0FBF1F0401C40F48040C0F30B0008B9BD
:1028C00001201AE0A06848B9681E616801EB410167
:1028D000B0FBF1F0401CC0F30B000CE0681E616817
:1028E00001EBC10202EB0111B0FBF1F0401CC0F39F
:1028F0000B0040F4804040F400402168C9694CF668
:10290000FF72914308432168C861D4E90701084375
:102910002168096821F0C001084321680860D4E9F2
:10292000031008432168896848F2FF329143084345
:1029300021688860D4E9050108432168C96821F04D
:10294000FF0108432168C8602068006840F001006A
:102950002168086000202064202084F83D000020C9
:10296000206384F83E0000BF24E70000A086010039
:1029700080841E0000093D0040420F002DE9FE4FFB
:1029800004460F4690469946DDE90CAB0E9E0020AA
:102990000290FFF7F3FE054694F83D00202872D11F
:1029A00019230122CE492046009502F0C8F810B143
:1029B0000220BDE8FE8F00BF94F83C00012801D141
:1029C0000220F6E7012084F83C0000BF2068006880
:1029D00000F0010028B92068006840F0010021687B
:1029E00008602068006820F40060216808602220E8
:1029F00084F83D00402084F83E0000202064C4F8A4
:102A000024A0A4F82AB0608D2085B648E0624B4629
:102A1000424639462046CDE9006501F03DFF08B148
:102A20000120C6E7208D88B900BF002001902068F2
:102A30004069019020688069019000BF00BF206854
:102A4000006840F40070216808604BE0208D012888
:102A50001AD12068006820F480602168086072B68E
:102A600000BF0020019020684069019020688069C3
:102A7000019000BF00BF2068006840F4007021682A
:102A8000086062B62EE029E1208D022819D1206865
:102A9000006840F400602168086072B600BF002042
:102AA000019020684069019020688069019000BF12
:102AB00000BF2068006820F480602168086062B66A
:102AC00010E02068006840F480602168086000BF62
:102AD0000020019020684069019020688069019081
:102AE00000BF00BFEBE0208D03287DD8208D01289A
:102AF00015D12A463146204602F0FDF808B10120E2
:102B000057E720680069616A0870606A401C60626B
:102B1000208D401E2085608D401E6085CFE0208D79
:102B200002282CD1334600226F492046009502F03E
:102B300006F808B101203CE772B62068006840F44E
:102B400000702168086020680069616A0870606A26
:102B5000401C6062208D401E2085608D401E608577
:102B600062B620680069616A0870606A401C606231
:102B7000208D401E2085608D401E60859FE033467D
:102B8000002259492046009501F0D9FF08B10120E3
:102B90000FE72068006820F480602168086072B642
:102BA00020680069616A0870606A401C6062208D5C
:102BB000401E2085608D401E60854C4800681921AC
:102BC000B0FBF1F04FF47A71B0FBF1F0C0EBC00054
:102BD00000EB8000029000BF0298401E0290029815
:102BE000A8B90020206300E039E0202084F83D00EF
:102BF000002084F83E00206C40F02000206462B683
:102C000000BF002084F83C0000BF0120D1E620680E
:102C10004069C0F380000028DED02068006840F4DE
:102C200000702168086020680069616A0870606A45
:102C3000401C6062208D401E2085608D401E608596
:102C400062B620680069616A0870606A401C606250
:102C5000208D401E2085608D401E60852FE02A4615
:102C60003146204602F047F808B10120A1E620686D
:102C70000069616A0870606A401C6062208D401EB5
:102C80002085608D401E608520684069C0F380000B
:102C9000A8B1208D032805D12068006820F4806049
:102CA0002168086020680069616A0870606A401CD9
:102CB0006062208D401E2085608D401E6085208DC5
:102CC00000287FF410AF202084F83D00002084F815
:102CD0003E0000BF84F83C0000BF6AE6022068E6C0
:102CE000020010000000FFFF040001000C000020A3
:102CF0002DE9FC5F04460F4690469946DDE90CAB92
:102D00000E9EFFF73BFD054694F83D0020287DD13F
:102D1000192301224D492046009501F010FF10B102
:102D20000220BDE8FC9F00BF94F83C00012801D1BF
:102D30000220F6E7012084F83C0000BF206800680C
:102D400000F0010028B92068006840F00100216807
:102D500008602068006820F4006021680860212075
:102D600084F83D00402084F83E0000202064C4F830
:102D700024A0A4F82AB0608D20853548E0624B4637
:102D8000424639462046CDE9006501F035FE08B1DE
:102D90000120C6E731E02A463146204601F0F0FF27
:102DA00050B1206C042805D12068006840F4007000
:102DB000216808600120B4E7606A00782168086132
:102DC000606A401C6062208D401E2085608D401E20
:102DD000608520684069C0F3800070B1208D60B1CB
:102DE000606A007821680861606A401C6062208D1A
:102DF000401E2085608D401E6085208D0028CAD130
:102E00002A463146204601F067FE00E01CE050B142
:102E1000206C042805D12068006840F40070216807
:102E2000086001207DE72068006840F40070216898
:102E30000860202084F83D00002084F83E0000BF98
:102E400084F83C0000BF6CE702206AE70200100033
:102E50000000FFFF10B586B00446002002900390EA
:102E60000490059015492068884225D100BF144878
:102E7000806940F00800124988610846806900F0C6
:102E80000800019000BF00BFC020029012200390F4
:102E90000320059002A90B48FFF7D2FA00BF0848AB
:102EA000C06940F400100649C8610846C06900F4D2
:102EB0000010019000BF00BF06B010BD00540040DC
:102EC00000100240000C01400348006803490978E3
:102ED00008440149086070470000002008000020F5
:102EE00010B50848006840F010000649086003204B
:102EF00000F098F80F2000F007F800F02BF8002001
:102F000010BD00000020024070B504460E48007855
:102F10004FF47A71B1FBF0F00C490968B1FBF0F5A0
:102F2000284601F03DFA08B1012070BD102C07D2EF
:102F300000222146501E00F037F80548046001E0E9
:102F40000120F2E70020F0E7080000200C0000203C
:102F50000400002008B500BF1148806940F001005E
:102F60000F4988610846806900F00100009000BFA9
:102F700000BF00BF0846C06940F08050C8610846E5
:102F8000C06900F08050009000BF00BF00BF05493D
:102F9000486820F0E06040F00070486000BF08BD65
:102FA00000100240000001402DE9F05F80460D4610
:102FB0001646002703F07CFF074639462A4633466B
:102FC00001F00700C0F1070ABAF1040F02D94FF06F
:102FD000040A01E0C0F1070AD14600F1040ABAF17F
:102FE000070F02D24FF0000A01E0A0F1030AD44615
:102FF0004FF0010A0AFA09FAAAF1010A0AEA020ADA
:103000000AFA0CFA4FF0010B0BFA0CFBABF1010BB7
:103010000BEA030B4AEA0B042146404603F050FF3B
:10302000BDE8F09F00BF00F00702064B19684FF69D
:10303000FF031940044B0B4343EA0221014B196083
:1030400000BF70470CED00E00000FA0501200149C7
:103050000862704700000E420748006840F0020016
:10306000054908600548006840F00400034908600D
:1030700000BF00BF30BF70470070004010ED00E09F
:103080002DE9F04706464FF00008002500270024F0
:10309000A146012E31D0022E56D0102E5FD13248DB
:1030A0004468006800F0807008B33048C4F383417E
:1030B000475C04F4803078B12B484068C0F340404E
:1030C0002B4911F8008004F4803040B12948B0FB4E
:1030D000F8F000FB07F502E0274807FB00F522485F
:1030E000406800F48000B0F5800F01D1A94603E0EC
:1030F00068000321B0FBF1F932E01B48046A04F4D4
:103100004070B0F5807F05D104F0020010B14FF49B
:10311000004918E004F44070B0F5007F07D1124870
:10312000406A00F0020010B149F640490BE004F497
:103130004070B0F5407F06D10B48006800F40030C5
:1031400008B14FF224490BE000F08CF906494968B8
:10315000C1F38131491C4900B0FBF1F900E000BF27
:1031600000BF4846BDE8F08700100240E0AB000811
:10317000F0AB000800127A0000093D00F8B50446E3
:1031800000260025207800F0010000286BD00027E1
:103190004348C06900F0805070B900BF4048C06922
:1031A00040F080503E49C8610846C06900F0805038
:1031B000009000BF00BF01273A48006800F480700B
:1031C000B0B93848006840F4807036490860FFF7AD
:1031D000D5FA064606E0FFF7D1FA801B642801D92C
:1031E0000320F8BD2F48006800F480700028F2D05A
:1031F0002B48006A00F440752DB3A08800F440709D
:10320000A84220D02648006A20F4407501202649B3
:103210000860002008602248056205F0010090B1B6
:10322000FFF7ACFA064608E0FFF7A8FA801B41F268
:103230008831884201D90320D3E71948006A00F099
:1032400002000028F0D01648006A20F4407061683F
:10325000084313490862012F04D10846C06920F0D1
:103260008050C86100BF207800F00200022807D11A
:103270000B48406820F44040A16808430849486072
:10328000207800F01000102807D10548406820F48D
:103290008000E1680843024948600020A1E700007F
:1032A00000100240007000404004424270B50446E5
:1032B0000D460CB9012070BD5A48006800F00700A7
:1032C000A8420ED25748006820F00700284355490D
:1032D00008600846006800F00700A84201D00120FD
:1032E000E9E7207800F0020002281DD1207800F0E4
:1032F0000400042805D14C48406840F4E0604A4985
:103300004860207800F00800082805D14648406849
:1033100040F46050444948604348406820F0F00061
:10332000A168084340494860207800F0010078B364
:103330006068012806D13C48006800F4003090B96C
:103340000120B8E76068022806D13748006800F01D
:10335000007040B90120AEE73348006800F0020079
:1033600008B90120A7E73048406820F003006168F1
:1033700008432D494860FFF701FA064609E0FFF7C8
:10338000FDF9801B41F28831884202D9032092E77F
:1033900007E02548406800F00C006168B0EB810F41
:1033A000EDD12048006800F00700A8420ED91D4862
:1033B000006820F0070028431A49086008460068A2
:1033C00000F00700A84201D0012074E7207800F047
:1033D0000400042807D11448406820F4E060E16844
:1033E000084311494860207800F00800082808D1F7
:1033F0000D48406820F46050216940EAC1000A4944
:10340000486000F03FF808494968C1F30311074AD2
:10341000515CC8400649086006480068FFF774FD23
:10342000002048E70020024000100240F2AB0008F4
:103430000C000020040000200148006870470000D4
:103440000C00002000B5FFF7F7FF04494968C1F3FD
:103450000221034A515CC84000BD00000010024038
:1034600002AC000800B5FFF7E7FF04494968C1F363
:10347000C221034A515CC84000BD00000010024058
:1034800002AC000870B500210022002400230020B7
:10349000134D696801F00C05F5B1042D02D0082D1B
:1034A00019D101E00F4819E00F4DC1F38346AB5D20
:1034B00001F4803555B10A4D6D68C5F340450B4E9A
:1034C000725D084D5D43B5FBF2F402E0084D03FB6D
:1034D00005F4204602E000BF024800BF00BF70BDF7
:1034E0000010024000127A00CEAB0008DEAB0008EC
:1034F00000093D00F8B504460CB90120F8BD20785C
:1035000000F00100002878D0F848406800F00C0076
:1035100004280CD0F548406800F00C00082811D1B0
:10352000F248406800F48030B0F5803F0AD1EF489F
:10353000006800F4003000285FD0606800285CD18B
:103540000120DBE700BF6068B0F5803F06D1E748A7
:10355000006840F48030E549086028E0606858B9A8
:10356000E248006820F48030E049086008460068BE
:1035700020F4802008601AE06068B0F5A02F0BD11D
:10358000DA48006840F48020D8490860084600689E
:1035900040F4803008600AE0D448006820F48030AD
:1035A000D24908600846006820F48020086000BF07
:1035B000606888B1FFF7E2F8054606E0FFF7DEF83D
:1035C000401B642801D9032098E7C848006800F42C
:1035D00000300028F2D010E0FFF7D0F8054606E0F2
:1035E000FFF7CCF8401B642801D9032086E7BF48C9
:1035F000006800F400300028F2D1207800F00200CA
:10360000022857D1B948406800F00C0050B1B748C3
:10361000406800F00C00082818D1B448406800F455
:10362000803098B9B148006800F0020020B12069EC
:10363000012801D0012061E7AC48006820F0F800C3
:10364000616940EAC100A949086033E02069E8B136
:103650000120A7490860FFF791F8054606E0FFF74B
:103660008DF8401B022801D9032047E79F480068D6
:1036700000F002000028F2D09C48006820F0F8001A
:10368000616940EAC1009949086013E00020984947
:103690000860FFF773F8054606E0FFF76FF8401B78
:1036A000022801D9032029E79048006800F00200B1
:1036B0000028F2D1207800F0080008282DD1A06958
:1036C000B8B101208B490860FFF758F8054606E0BD
:1036D000FFF754F8401B022801D903200EE7834866
:1036E000406A00F002000028F2D0012003F020F828
:1036F00013E000207F490860FFF740F8054606E028
:10370000FFF73CF8401B022801D90320F6E6774872
:10371000406A00F002000028F2D1207800F0040096
:10372000042873D100277148C06900F0805070B937
:1037300000BF6E48C06940F080506C49C8610846BF
:10374000C06900F08050009000BF00BF01276A48A8
:10375000006800F48070B0B96748006840F4807079
:1037600065490860FFF70AF8054606E0FFF706F826
:10377000401B642801D90320C0E65F48006800F4BC
:1037800080700028F2D000BFE068012806D15748B9
:10379000006A40F001005549086227E0E06858B926
:1037A0005248006A20F00100504908620846006A49
:1037B00020F00400086219E0E06805280BD14B48AE
:1037C000006A40F00400494908620846006A40F077
:1037D000010008620AE04548006A20F00100434900
:1037E00008620846006A20F00400086200BFE06832
:1037F000A0B1FEF7C3FF054609E0FEF7BFFF401B7F
:1038000041F28831884202D9032077E622E0374826
:10381000006A00F002000028EFD012E0FEF7AEFFD1
:10382000054608E0FEF7AAFF401B41F288318842B6
:1038300001D9032062E62D48006A00F0020000284A
:10384000F0D1012F05D12948C06920F080502749C7
:10385000C86100BFE069C8B32448406800F00C00AC
:10386000082860D0E069022848D100202049086675
:10387000FEF784FF054606E0FEF780FF401B0228A6
:1038800001D903203AE61948006800F000700028CA
:10389000F2D1206AB0F5803F07D11448406820F487
:1038A0000030A168084311494860D4E90801084381
:1038B0000E49496821F4741108430C4948600120FD
:1038C0000B490866FEF75AFF054607E03DE0FEF7A4
:1038D00055FF401B022801D903200FE6034800686A
:1038E00000F000700028F2D02FE00000001002402D
:1038F000000042428004424200700040002014490F
:103900000866FEF73BFF054606E0FEF737FF401B63
:10391000022801D90320F1E50E48006800F000708C
:103920000028F2D111E0E069012800D1E6E509485C
:10393000466806F48031206A814204D106F4701191
:10394000606A814201D00120D8E50020D6E5000060
:1039500000004242001002402DE9F04780460C462C
:10396000914600250026AA460027B8F1000F00D096
:1039700014B90120BDE8F087D8F800004068C0F312
:10398000800008B10120F5E7404602F0B7FF054688
:103990004FF46160B5FBF0F7B5FBF0F100FB11509F
:1039A0003C21B0FBF1F060704FF46160B5FBF0F1C9
:1039B00000FB11503C21B0FBF1F201FB1200A070A2
:1039C000182F39D31820B7FBF0FAB7FBF0F100FB42
:1039D00011702070404602F085FF0646701C18B139
:1039E000AE4201D9761B01E04FF0FF360AEB4A00E8
:1039F000C000C0EB4011C1EB0020A5EB001529462B
:103A0000404602F0EEFF08B10120B3E7701C38B168
:103A10002E443146404602F0CDFF40B10120A9E7D7
:103A20003146404602F0C6FF08B10120A2E75146E8
:103A3000404602F0A9FE00E02770B9F1000F0BD05C
:103A4000207802F094FE2070607802F090FE6070A2
:103A5000A07802F08CFEA07000208BE770B50446C1
:103A600000250CB9012070BD607C20B900202074B5
:103A7000204600F053F802206074204600F0D8F889
:103A800018B1042060740120EDE7204602F0D7FE53
:103A900018B1042060740120E5E72068406820F038
:103AA000070021684860A06828B11B48006820F022
:103AB0000100194908601848001F006820F4607070
:103AC000A16808431449091F08606068401C08B1D8
:103AD000656809E00120FFF7D3FA05461DB9042007
:103AE00060740120BFE76D1EC5F303402168886044
:103AF000A8B22168C860204602F0BEFE18B10420BA
:103B000060740120AFE70021E17301216173A173AB
:103B1000012060740020A6E7306C004038B50446F0
:103B20000B492068884212D1FFF790FA00BF09487C
:103B3000C06940F000600749C8610846C06900F0EC
:103B40000060009000BF00BF01200349086038BD3D
:103B500000280040001002403C0442422DE9F84396
:103B600004460D46174600260020009004B115B902
:103B70000120BDE8F88300BF207C012801D102208C
:103B8000F7E70120207400BF02206074002269461C
:103B90002046FFF7E1FE08B10120EAE79DF80000AA
:103BA0004FF4616148439DF80110C1EB011100EB36
:103BB00081009DF8021000EB01085FB928784FF4EE
:103BC000616148436978C1EB011100EB8100A9787C
:103BD000461812E0287802F0BFFD4FF4616100FB47
:103BE00001F9687802F0B8FDC0EB001009EB80091C
:103BF000A87802F0B1FD09EB0006464501D20B485A
:103C000006443146204602F0D5FE38B104206074E7
:103C100000BF0020207400BF0120AAE701206074CB
:103C200000BF0020207400BF00BFA2E78051010048
:103C300070B5044600250CB9012070BD20684068AD
:103C400020F0080021684860FEF798FD054607E06F
:103C5000FEF794FD401BB0F57A7F01D90320ECE715
:103C60002068406800F008000028F1D00020E4E758
:103C700010B504460CB9012010BD022084F8510093
:103C80002068006820F0400021680860204600F0AD
:103C900069F80020606584F8510000BF84F8500086
:103CA00000BF00BFE8E710B504460CB9012010BD05
:103CB000606A38B96068B0F5827F00D105E0002104
:103CC000E16102E00021216161610021A16294F8BB
:103CD000510028B9002084F85000204600F05AF81E
:103CE000022084F851002068006820F0400021681C
:103CF0000860A08800F48270218901F4044108431F
:103D0000A18901F400610843217C01F0020108430C
:103D1000217D01F001010843218B01F4007108436A
:103D2000217F01F0380108432021095D01F0800165
:103D30000843218D01F400510843216808600421E3
:103D4000A06901EA1040216848602068C06920F439
:103D500000602168C86100206065012084F851007E
:103D60000020A4E710B5044607492068884209D11D
:103D70000648806920F4805004498861E0210448A5
:103D8000FEF7C4FA10BD00000030014000100240F0
:103D90000008014010B586B0044600200290039050
:103DA000049005901949206888422DD100BF184819
:103DB000806940F48050164988610846806900F4A3
:103DC0008050019000BF00BF00BF0846806940F0EE
:103DD000040088610846806900F00400019000BF7B
:103DE00000BFA0200290022003900320059002A9AA
:103DF0000848FEF725FB4020029000200390049025
:103E000002A90448FEF71CFB06B010BD00300140BB
:103E100000100240000801402DE9F843044688469E
:103E200016461D4694F85100012802D00220BDE834
:103E3000F8836068B0F5827F0CD1A06850B9042087
:103E400084F851003346424641462046009500F032
:103E500083F9ECE7FEF792FC0746B8F1000F00D0BB
:103E60000EB90120E3E700BF94F85000012801D10A
:103E70000220DCE7012084F8500000BF042084F811
:103E8000510000206065C4F83880A687E68720636B
:103E9000A086E08620646064A068B0F5004F0BD176
:103EA0002068006820F040002168086020680068F1
:103EB00020F48040216808602068006800F040001D
:103EC000402805D02068006840F040002168086064
:103ED000E06830BB21E02068806800F0010050B14C
:103EE0002068007BA16B0870A06B401CA063E08F72
:103EF000401EE08711E0FEF741FCC01BA84201D341
:103F0000681C00B94DB9012084F8510000BF0020A1
:103F100084F8500000BF032089E7E08F0028DAD141
:103F200025E021E02068806800F0010050B12068A1
:103F3000C068A16B0880A06B801CA063E08F401E4E
:103F4000E08711E0FEF71AFCC01BA84201D3681CF1
:103F500000B94DB9012084F8510000BF002084F859
:103F6000500000BF032062E7E08F0028DAD13A4614
:103F70002946204602F04CFD08B120206065012052
:103F800084F8510000BF002084F8500000BF606D2D
:103F900008B101204BE7002049E72DE9F84304462A
:103FA0000F4616461D46FEF7E9FB8046B14694F8DB
:103FB0005100012802D00220BDE8F88307B10EB9F4
:103FC0000120F9E700BF94F85000012801D1022038
:103FD000F2E7012084F8500000BF032084F851006C
:103FE000002060652763A686E686A063A087E08739
:103FF00060642064A068B0F5004F0BD120680068B1
:1040000020F04000216808602068006840F480408B
:10401000216808602068006800F04000402805D052
:104020002068006840F0400021680860E068B0F552
:10403000006F37D1606810B1B9F1010F09D1206B61
:1040400000882168C860206B801C2063E08E401EC1
:10405000E08623E02068806800F0020002280AD190
:10406000206B00882168C860206B801C2063E08E74
:10407000401EE08612E0FEF781FBA0EB0800A8429C
:1040800001D3681C00B94DB9012084F8510000BF6C
:10409000002084F8500000BF03208DE7E08E002848
:1040A000D8D136E0606810B1B9F1010F09D1206BA9
:1040B000007821680873206B401C2063E08E401E4E
:1040C000E08623E02068806800F0020002280AD120
:1040D000206B007821680873206B401C2063E08E01
:1040E000401EE08612E0FEF749FBA0EB0800A84264
:1040F00001D3681C00B94DB9012084F8510000BFFC
:10410000002084F8500000BF032055E7E08E00280F
:10411000D8D142462946204602F0B6FC08B12020FC
:104120006065A06850B900BF002000902068C0689A
:10413000009020688068009000BF00BF012084F8D4
:10414000510000BF002084F8500000BF606D08B12E
:10415000012031E700202FE72DE9FE4F04460F46EE
:1041600090461D460C9E01200190FEF707FB8146FC
:1041700094F851B060680290AA46BBF1010F0BD0D1
:104180000298B0F5827F04D1A06810B9BBF1040F8A
:1041900002D00220BDE8FE8F1FB1B8F1000F00D0A1
:1041A0000DB90120F6E700BF94F85000012801D1B5
:1041B0000220EFE7012084F8500000BF94F851007E
:1041C000042802D0052084F8510000206065C4F85E
:1041D0003880E587A5872763E586A5862064606427
:1041E0002068006800F04000402805D02068006882
:1041F00040F0400021680860E068B0F5006F52D1DF
:10420000606810B1BAF1010F09D1206B00882168F4
:10421000C860206B801C2063E08E401EE0863BE07F
:104220002068806800F00200022810D1E08E70B192
:10423000019801280BD1206B00882168C860206B91
:10424000801C2063E08E401EE086002001902068E4
:10425000806800F0010068B1E08F58B12068C06844
:10426000A16B0880A06B801CA063E08F401EE087DC
:1042700001200190FEF782FAA0EB0900B0420BD3B7
:10428000701C48B1012084F8510000BF002084F860
:10429000500000BF03207DE7E08E0028C0D1E08FF2
:1042A0000028BDD152E0606810B1BAF1010F09D108
:1042B000206B007821680873206B401C2063E08E1F
:1042C000401EE0863CE02068806800F00200022882
:1042D00010D1E08E70B1019801280BD1206B0078CD
:1042E00021680873206B401C2063E08E401EE0862E
:1042F000002001902068806800F0010068B1E08F24
:1043000058B12068C068A16B0870A06B401CA06306
:10431000E08F401EE08701200190FEF72FFAA0EB0E
:104320000900B04201D3701C00B94EB9012084F8D5
:10433000510000BF002084F8500000BF032029E78F
:10434000E08E0028BFD1E08F0028BCD14A4631461C
:10435000204602F099FB40B12020606500BF00209C
:1043600084F8500000BF012014E7A06850B900BFD6
:10437000002000902068C06800902068806800904D
:1043800000BF00BF012084F8510000BF002084F866
:10439000500000BF606D08B10120FBE60020F9E687
:1043A00070B504462546681EB0F1807F01D3012018
:1043B0000FE0681E4FF0E02148610F214FF0FF3001
:1043C00002F07EFD00204FF0E021886107200861A7
:1043D000002070BD2DE9F84F04460F4690461D465B
:1043E000DDF828A094F84200202878D117B1B8F160
:1043F000000F02D10120BDE8F88F00206064222068
:1044000084F842000120206300206063FEF7B6F9C3
:104410008346A4F82C80A4F82E80A068B0F5805FB5
:1044200004D1206910B90026B94602E03E464FF09B
:1044300000090020288053E02068006800F0100088
:10444000102813D100BF0020009020680068009061
:1044500020684068009000BF00BF288830B102206B
:104460006063202084F842000020C4E720680068D0
:1044700000F02000202821D146B920684068C0F310
:104480000800A9F8000009F1020911E0A068B0F5E0
:10449000805F03D0A06828B9206918B920684068F7
:1044A000307004E02068406800F07F003070761CB7
:1044B0002888401C2880E08D401EE0850AF101001C
:1044C00070B1FEF75BF9A0EB0B00504502D8BAF1D2
:1044D000000F05D1202084F8420003208BE70BE079
:1044E000E08D0028A8D1A08DE18D401A28802020E1
:1044F00084F8420000207EE702207CE710B50446E5
:104500000CB9012010BDA06900B100E000BF94F813
:10451000410028B9002084F84000204600F02AF825
:10452000242084F841002068C06820F400502168ED
:10453000C860204602F0B6FB2068006920F4904075
:10454000216808612068406920F02A0021684861DC
:104550002068C06840F400502168C8600020606492
:10456000202084F8410084F842000020606300BFEE
:10457000C8E7000010B586B0044600200290039002
:10458000049005904D49206888422FD100BF4C48C7
:10459000806940F480404A4988610846806900F497
:1045A0008040019000BF00BF00BF0846806940F016
:1045B000040088610846806900F00400019000BF93
:1045C00000BF48150290022003900320059002A925
:1045D0003C48FDF735FF4FF48060029000200390C7
:1045E000049002A93748FDF72BFF65E036492068A3
:1045F00088422ED100BF3248C06940F400303049B3
:10460000C8610846C06900F40030019000BF00BFD7
:1046100000BF0846806940F0040088610846806950
:1046200000F00400019000BF00BF042002900220AF
:1046300003900320059002A92248FDF701FF0820FE
:10464000029000200390049002A91E48FDF7F8FE96
:1046500032E01E49206888422ED100BF1848C06948
:1046600040F480201649C8610846C06900F48020E3
:10467000019000BF00BF00BF0846806940F00800FD
:1046800088610846806900F00800019000BF00BF03
:1046900008150290022003900320059002A90C48FF
:1046A000FDF7CEFE4FF400600290002003900490CE
:1046B00002A90748FDF7C4FE06B010BD003801404E
:1046C0000010024000080140004400400048004043
:1046D000000C01402DE9F84F04460E461746994656
:1046E0004FF0000A94F84200202852D106B117B9C1
:1046F0000120BDE8F88F00206064222084F8420089
:1047000000202063FEF73AF88246A785E785A06877
:10471000B0F5805F04D1206910B90025B04602E0F1
:1047200035464FF000082CE0534600222021204659
:10473000CDF8009002F034FB20B1202084F8420034
:104740000320D6E745B920684068C0F30800A8F800
:10475000000008F1020811E0A068B0F5805F03D006
:10476000A06828B9206918B920684068287004E05A
:104770002068406800F07F0028706D1CE08D401EAE
:10478000E085E08D0028CFD1202084F84200002071
:10479000AFE70220ADE72DE9F84F04460E46174675
:1047A00099464FF0000A94F84100202850D106B1F4
:1047B00017B90120BDE8F88F00206064212084F83B
:1047C0004100FDF7DBFF8246A784E784A068B0F5CF
:1047D000805F04D1206910B90025B04602E035465B
:1047E0004FF000081EE05346002280212046CDF8FD
:1047F000009002F0D5FA20B1202084F84100032077
:10480000D8E745B9B8F80000C0F30800216848604F
:1048100008F1020803E02878216848606D1CE08CEC
:10482000401EE084E08C0028DDD153460022402168
:104830002046CDF8009002F0B3FA20B1202084F891
:1048400041000320B6E7202084F841000020B1E7B2
:104850000220AFE700BFFEE7014608684069C0F3E9
:104860008020B0B16FF480600A6850610020086356
:10487000202081F83D00002081F83E00086C40F0C7
:104880000400086400BF002081F83C0000BF012044
:1048900070470020FCE700002DE9F84304460F466E
:1048A00015469946DDE908862068006840F4806076
:1048B000216808602068006840F480702168086002
:1048C000434600224FF001112046009600F037F9D0
:1048D00060B12068006800F48070B0F5807F02D17C
:1048E0004FF4007020640320BDE8F88307F0FE0059
:1048F00021680861334642463E49204600F07EF971
:1049000008B10120F0E700BF002000902068406956
:10491000009020688069009000BF00BF3246414689
:10492000204600F02DFA50B1206C042805D12068F3
:10493000006840F40070216808600120D4E7B9F1F4
:10494000010F03D1E8B22168086117E0C5F3072021
:104950002168086132464146204600F011FA50B104
:10496000206C042805D12068006840F4007021689C
:1049700008600120B8E7E8B2216808613246414684
:10498000204600F0FDF950B1206C042805D12068C4
:10499000006840F40070216808600120A4E72068E6
:1049A000006840F4807021680860434600224FF0A0
:1049B00001112046009600F0C2F858B12068006846
:1049C00000F48070B0F5807F02D14FF40070206455
:1049D000032089E7F8B240F00100216808613346FE
:1049E00042460449204600F009F908B101207BE75E
:1049F000002079E7020001002DE9F84304468846CB
:104A000015469946DDE908672068006840F4807023
:104A100021680860334600224FF0011120460097BC
:104A200000F08DF860B12068006800F48070B0F587
:104A3000807F02D14FF4007020640320BDE8F8832A
:104A400008F0FE00216808613B46324621492046B5
:104A500000F0D4F808B10120F0E700BF002000907A
:104A600020684069009020688069009000BF00BF06
:104A70003A463146204600F083F950B1206C0428B4
:104A800005D12068006840F40070216808600120AA
:104A9000D4E7B9F1010F03D1E8B22168086117E04A
:104AA000C5F30720216808613A463146204600F0E8
:104AB00067F950B1206C042805D12068006840F4E3
:104AC0000070216808600120B8E7E8B22168086139
:104AD0000020B3E70200010070B504460D461646FB
:104AE00025E02046FFF7B8FE08B1012070BD681C24
:104AF000E8B1FDF743FE801BA84200D8BDB920688D
:104B00004069C0F3800090B900202063202084F821
:104B10003D00002084F83E00206C40F0200020641E
:104B200000BF002084F83C0000BF0120DEE72068C1
:104B30004069C0F380000028D3D00020D6E72DE9DB
:104B4000F04104460D4617461E46DDF8188038E051
:104B5000701CA8B3FDF712FEA0EB0800B04200D80D
:104B600076BBC5F3074001280AD120684069A9B285
:104B70000840A9B2884201D101200BE0002009E0E1
:104B800020688069A9B20840A9B2884201D10120F9
:104B900000E00020B84214D100202063202084F8D7
:104BA0003D00002084F83E00206C40F0200020648E
:104BB00000BF002084F83C0000BF0120BDE8F08168
:104BC000FFE7C5F3074001280AD120684069A9B270
:104BD0000840A9B2884201D101200BE0002009E081
:104BE00020688069A9B20840A9B2884201D1012099
:104BF00000E00020B842ABD00020DFE72DE9F04113
:104C000004460D4616461F4658E020684069C0F32A
:104C10008020E8B12068006840F4007021680860D6
:104C20006FF480602168486100202063202084F8B0
:104C30003D00002084F83E00206C40F00400206419
:104C400000BF002084F83C0000BF0120BDE8F081D7
:104C5000701C90B3FDF792FDC01BB04200D866BB3C
:104C6000C5F3074001280AD120684069A9B208406D
:104C7000A9B2884201D101200BE0002009E02068A0
:104C80008069A9B20840A9B2884201D1012000E0A0
:104C9000002090B900202063202084F83D000020EF
:104CA00084F83E00206C40F02000206400BF00200B
:104CB00084F83C0000BF0120C8E7FFE7C5F30740C8
:104CC00001280AD120684069A9B20840A9B28842E7
:104CD00001D101200BE0002009E020688069A9B221
:104CE0000840A9B2884201D1012000E0002000283C
:104CF0008BD00020AAE770B504460D46164637E073
:104D000020684069C0F30010A0B16FF01000216866
:104D1000486100202063202084F83D00002084F8B2
:104D20003E00206C206400BF002084F83C0000BFDF
:104D3000012070BDFDF722FD801BA84200D8BDB93F
:104D400020684069C0F3801090B9002020632020C3
:104D500084F83D00002084F83E00206C40F02000E4
:104D6000206400BF002084F83C0000BF0120E0E781
:104D700020684069C0F380100028C1D00020D8E727
:104D800070B504460D46164625E02046FFF764FD43
:104D900008B1012070BD681CE8B1FDF7EFFC801B75
:104DA000A84200D8BDB920684069C0F3C01090B9CE
:104DB00000202063202084F83D00002084F83E007D
:104DC000206C40F02000206400BF002084F83C00EC
:104DD00000BF0120DEE720684069C0F3C010002852
:104DE000D3D00020D6E7000010B5002208210248E9
:104DF000FDF7BEFC10BD0000000C014010B5012203
:104E000008210348FDF7B4FC0120FDF76DF910BD42
:104E1000000C014010B503A000F0A8F804A000F0B9
:104E2000A5F810BD5043415330322C3130303000A2
:104E30005043415330342C330000000038B54FF458
:104E400080613848FBF7EBF900203749088030E0F3
:104E500036A13448FBF7EEF928B135A13148FBF70C
:104E6000E9F900B126E04FF47A70324B4FF400724A
:104E7000314900903148FFF7ADFA2E4800880028EC
:104E800017DD2849284A128888182A490A882A4999
:104E9000FBF7ACF9244800882649098808442249D0
:104EA00008804FF400712448FBF7B9F9002021492C
:104EB0000880CDE700BF5C2121A0FBF7DDF928B118
:104EC0005C211FA0FBF7D8F9401C00E01CA00546A0
:104ED0002F21FBF7D1F988B15C2119A0FBF7CCF9A0
:104EE00028B15C2116A0FBF7C7F9401C00E014A014
:104EF00005462F21FBF7C0F9401C0BE05C2110A0F8
:104F0000FBF7BAF928B15C210DA0FBF7B5F9401CFD
:104F100000E00BA00446034B632221460FA001F0E2
:104F200087FF38BD8C06002026000020474741003F
:104F300054585400240000208C040020FC0300205E
:104F40002E2E5C696E746572666163655C496E7471
:104F50005F415436353538522E6300005B25733A75
:104F600025645D0A25730D0A000000002DE9F0415B
:104F700004462578012003E0215C4D40411CC8B265
:104F8000215C0029F8D12B46224623A1254801F0B7
:104F90005FFF5C2124A0FBF76FF928B15C2122A000
:104FA000FBF76AF9401C00E01FA007462F21FBF722
:104FB00063F988B15C211CA0FBF75EF928B15C2184
:104FC00019A0FBF759F9401C00E017A007462F2154
:104FD000FBF752F9401C0BE05C2113A0FBF74CF9E6
:104FE00028B15C2110A0FBF747F9401C00E00EA09F
:104FF00006460C4B1E22314612A001F019FF09484B
:10500000FBF72AF986B24FF47A7332460549114804
:10501000FFF7C1FBBDE8F0812425732A2530325803
:105020000D0A00008C0800202E2E5C696E746572DB
:10503000666163655C496E745F415436353538523C
:105040002E6300005B25733A25645D0A25730D0A03
:1050500000000000FC0300203EB504460020029042
:105060000190009002A9C42000F078F801A9C520A1
:1050700000F074F86946C62000F070F89DF8000052
:1050800000049DF8041040EA01209DF80810084330
:1050900020603EBDF8B5FF2000906946012000F079
:1050A0005DF85C211FA0FBF7E7F828B15C211DA08B
:1050B000FBF7E2F8401C00E01AA006462F21FBF7A0
:1050C000DBF888B15C2117A0FBF7D6F828B15C218A
:1050D00014A0FBF7D1F8401C00E012A006462F21D7
:1050E000FBF7CAF8401C0BE05C210EA0FBF7C4F8EC
:1050F00028B15C210BA0FBF7BFF8401C00E009A021
:1051000005469DF80030322229460DA001F090FEA0
:10511000182424F0100444F002042146C32000F0B7
:1051200041F8F8BD2E2E5C696E7465726661636528
:105130005C496E745F4453333535332E6300000091
:105140005B25733A25645D0A445333353533204972
:10515000443A20307825780D0A0000003EB5044618
:105160000D46002220210D48FDF702FB0520FCF72B
:10517000B5FF4FF47A7001210B462246CDE900516C
:1051800002904F210648FDF7F9FB01222021034838
:10519000FDF7EEFA0C20FCF7A1FF3EBD000C01402C
:1051A000F402002013B584B00446002220210E48EA
:1051B000FDF7DEFA0520FCF791FF4FF47A7001212C
:1051C00005AA0B46CDE90021029022464E21074850
:1051D000FDF78EFD012220210348FDF7C9FA0C20BE
:1051E000FCF77CFF06B010BD000C0140F40200206B
:1051F0000EB5012211032248FDF7BAFA002204215C
:105200001F48FDF7B5FA0020034640F2C2321146AE
:1052100000901C4804F0CCF808B101200EBD40F20B
:10522000FF31184802F012FF08B10120F6E7002014
:105230000121FF230246CDE900100C21114804F0A2
:10524000B5F908B10120E9E702A90E4803F080F89A
:1052500008B10120E2E79DF8080040F00400029048
:105260009DF80810074804F009F908B10120D5E7B6
:10527000044802F035FF08B10120CFE70020CDE758
:10528000000C01402C00002008B500224FF4805192
:105290000E48FDF76DFA012204210C48FDF768FA6B
:1052A0000020034640F2813211460090084804F085
:1052B0007FF808B1012008BD40F2FF31044802F038
:1052C000C5FE08B10120F6E70020F4E7000C01401C
:1052D0002C0000201FB58E4803F000F9044614B1DD
:1052E0008CA003F007FB0121894804F03BFC044635
:1052F0002CB18EA003F0FEFA854802F065FF002174
:10530000834804F071FC04462CB190A003F0F2FA3B
:105310007F4802F059FF01217D4804F005FB044657
:105320002CB194A003F0E6FA794802F04DFF032275
:105330000221774804F068FA04462CB196A003F0E5
:10534000D9FA734802F040FF3021714804F0C2FBE3
:1053500004462CB198A003F0CDFA6D4802F034FF5A
:1053600001216B4804F09CFA04462CB19DA003F087
:10537000C1FA674802F028FF00221121644804F0B6
:10538000FFFC04462CB1A0A003F0B4FA604802F080
:105390001BFF002001230422092100905C4804F037
:1053A000AFF804462CB1A0A003F0A4FA584802F0CC
:1053B0000BFF03AAA749564802F094FF04462CB1FC
:1053C000A5A003F097FA524802F0FEFE5048039958
:1053D00004F0EEFA04462CB1A9A003F08BFA4C4875
:1053E00002F0F2FE00221146494803F095FF044600
:1053F0002CB1ACA003F07EFA454802F0E5FE002196
:10540000434804F02FF904462CB1B1A003F072FA1E
:105410003F4802F0D9FE00231A4619463C4803F0E3
:1054200021FF04462CB1B5A003F064FA384802F01D
:10543000CBFE374802F0C0FD04462CB1B7A003F004
:1054400059FA334802F0C0FE43F24441304804F0B8
:1054500051F904462CB1BBA003F04CFA2C4802F0E1
:10546000B3FE02A92A4802F0F7FF04462CB1BEA001
:1054700003F040FA264802F0A7FE9DF8080040F02D
:10548000040002909DF80810214804F037FC0446FF
:105490002CB1BEA003F02EFA1D4802F095FE942117
:1054A0001B4804F0D5FA04462CB1C1A003F022FA3F
:1054B000174802F089FE3821154804F063F90446C4
:1054C0002CB1C3A003F016FA114802F07DFE01A929
:1054D0000F4802F07FFF04462CB1C4A003F00AFA83
:1054E0000B4802F071FE9DF8040040F01E00019090
:1054F0009DF80410064804F0BFFB04462CB1C5A07B
:1055000003F0F8F9024802F05FFEFFF771FE1FBDDD
:105510002C0000206C6C636336383A20696E697425
:10552000206661696C65642E0A0000006C6C636320
:1055300036383A20736574207374616E6462792022
:105540006661696C65642E0A000000006C6C636320
:1055500036383A2073746F702074696D6572206FED
:105560006E20707265616D626C65206661696C6544
:10557000642E0A006C6C636336383A2073657420BD
:10558000726567756C61746F72206D6F64652066FB
:1055900061696C65642E0A006C6C636336383A206E
:1055A00073657420706120636F6E66696720666141
:1055B000696C65642E0A00006C6C636336383A20AF
:1055C0007365742072782074782066616C6C6261F7
:1055D000636B206D6F6465206661696C65642E0A7B
:1055E000000000006C6C636336383A2073657420E9
:1055F0007061636B65742074797065206661696C95
:1056000065642E0A000000006C6C636336383A2033
:1056100073657420747820706172616D73206661A7
:10562000696C65642E0A00006C6C636336383A203E
:10563000736574206C6F7261206D6F64756C61743A
:10564000696F6E20706172616D73206661696C654F
:10565000642E0A0000389C1C6C6C636336383A2058
:10566000636F6E7665727420746F207265676973FC
:10567000746572206661696C65642E0A0000000022
:105680006C6C636336383A207365742072662066EA
:1056900072657175656E6379206661696C65642EEB
:1056A0000A0000006C6C636336383A20736574201E
:1056B00062756666657220626173652061646472FA
:1056C000657373206661696C65642E0A00000000D2
:1056D0006C6C636336383A20736574206C6F72614A
:1056E0002073796D62206E756D2074696D656F75BC
:1056F00074206661696C65642E0A00006C6C6363DB
:1057000036383A207265736574207374617473203F
:105710006661696C65642E0A000000006C6C63634E
:1057200036383A20636C656172206465766963651A
:10573000206572726F7273206661696C65642E0AEF
:10574000000000006C6C636336383A207365742087
:105750006C6F72612073796E6320776F726420665C
:1057600061696C65642E0A006C6C636336383A209C
:10577000676574207478206D6F64756C6174696FEF
:105780006E206661696C65642E0A00006C6C636350
:1057900036383A20736574207478206D6F64756CA8
:1057A0006174696F6E206661696C65642E0A000021
:1057B0006C6C636336383A207365742072782067A6
:1057C00061696E206661696C65642E0A00000000E4
:1057D0006C6C636336383A20736574206F63702095
:1057E0006661696C65642E0A000000006C6C63637E
:1057F00036383A2067657420747820636C616D7068
:1058000020636F6E666967206661696C65642E0A45
:10581000000000006C6C636336383A2073657420B6
:10582000747820636C616D7020636F6E66696720A9
:105830006661696C65642E0A0000000030B585B0B1
:1058400004460D46FFF720FD002001A931C1049058
:10585000012000230C2201460090064803F018FBAB
:1058600020B1FFF7C5FC012005B030BDFFF7C0FC3B
:105870000020F9E72C00002010B588B00446202154
:105880006846FAF7CCFC224608A1684601F0E0FA27
:10589000684600F02DFC09A10948FAF7CBFC10B9C5
:1058A000012008B010BD0020FBE7000041542B4E42
:1058B000534F434C3D25640D0A0000004F4B000040
:1058C0004C09002070B592B004460D4616464021A2
:1058D00002A8FAF7A4FC2B46224609A102A80096CA
:1058E00001F0B6FA02A800F003FC0AA10A48FAF790
:1058F000A1FC10B9012012B070BD0020FBE7000030
:1059000041542B4E534F434F3D25642C25732C257A
:10591000640D0A004F4B00004C0900202DE9F041B6
:10592000044640A000F0E4FB44A14548FAF782FC9D
:1059300010B90120BDE8F08142A14148FAF77AFC94
:1059400005465C2141A0FAF797FC28B15C213FA0F5
:10595000FAF792FC401C00E03CA007462F21FAF722
:105960008BFC88B15C2139A0FAF786FC28B15C2158
:1059700036A0FAF781FC401C00E034A007462F2136
:10598000FAF77AFC401C0BE05C2130A0FAF774FCBB
:1059900028B15C212DA0FAF76FFC401C00E02BA081
:1059A00006462B467D2231462FA001F041FAE879C8
:1059B000303820705C2125A0FAF75EFC28B15C210C
:1059C00022A0FAF759FC401C00E020A007462F2136
:1059D000FAF752FC88B15C211CA0FAF74DFC28B103
:1059E0005C211AA0FAF748FC401C00E017A007460B
:1059F0002F21FAF741FC401C0BE05C2113A0FAF7C1
:105A00003BFC28B15C2111A0FAF736FC401C00E0F9
:105A10000EA0064623788022314618A001F008FA2D
:105A2000002087E741542B4E534F43523D5354526D
:105A300045414D2C362C302C300D0A004F4B0000C8
:105A40004C0900202B4E534F43523A002E2E5C69D6
:105A50006E746572666163655C496E745F51533143
:105A600030302E63000000005B25733A25645D73BF
:105A70006F636B65743A25730D0A00005B25733AFA
:105A800025645D736F636B657431313A25640D0A6B
:105A90000000000010B502A4204600F029FB10BD54
:105AA00041542B464153544F46463D300D0A0000A9
:105AB00010B500F001FD10BD10B506A000F018FBF8
:105AC00007A10A48FAF7B6FB08B9012010BD00206B
:105AD000FCE7000041542B43474154543F0D0A005A
