:020000040800F2
:10000000980D002085020008EB3A000881360008B0
:10001000E93A00082D250008173E000800000000FE
:10002000000000000000000000000000393C000853
:100030002F25000800000000ED3A00083B3C0008B6
:100040009F0200089F0200089F0200089F0200080C
:100050009F0200089F0200089F0200089F020008FC
:100060009F0200089F0200089F0200089F020008EC
:100070009F0200089F0200089F0200089F020008DC
:100080009F0200089F0200089F0200089F020008CC
:100090009F0200089F0200089F0200089F020008BC
:1000A0009F0200089F0200089F0200089F020008AC
:1000B0009F0200089F0200089F0200089F0200089C
:1000C0009F0200089F0200089F0200089F0200088C
:1000D0009F0200089F0200089F0200089F0200087C
:1000E0009F0200089F0200089F02000800F002F82B
:1000F00000F0B8F80AA090E8000C82448344AAF10A
:100100000107DA4501D100F0ADF8AFF2090EBAE807
:100110000F0013F0010F18BFFB1A43F0010318473B
:10012000084C0000284C00000A444FF0000C10F866
:10013000013B13F0070408BF10F8014B1D1108BF65
:1001400010F8015B641E05D010F8016B641E01F805
:10015000016BF9D113F0080F1EBF10F8014BAD1C55
:100160000C1B09D16D1E58BF01F801CBFAD505E073
:1001700014F8016B01F8016B6D1EF9D59142D6D3CD
:10018000704700000023002400250026103A28BFF5
:1001900078C1FBD8520728BF30C148BF0B607047F9
:1001A0006E2900F00284702900F06785662904F04A
:1001B0001D85652904F01A85672904F017856129D2
:1001C00004F0168503681B0A28BF41F080016929E5
:1001D00000F0E480642900F0E180752900F0DE8001
:1001E0006F2900F0F484782900F03385E92900F0C4
:1001F0008F84E42900F08C84F52900F08984EF29AC
:1002000000F0F184F82900F032850368DB0928BF8B
:1002100041F08001632900F0FF83732900F004841A
:10022000E32901F06581F32901F06A81002070471C
:100230001FB59DE8030000F0C9FA01F08DFA040033
:100240000020002104F0BCFC401C60600020002164
:1002500004F0A0FCE06001F05BF91FBD10B501F0F7
:10026000C0F910BD01F04BFA1146FFF7E1FF04F0B1
:100270001DFB01F0E7FB03B4FFF7F0FF03BC01F047
:100280001FFC00000948804709480047FEE7FEE7D9
:10029000FEE7FEE7FEE7FEE7FEE7FEE7FEE7FEE736
:1002A00004480549054A064B704700009D3C00087C
:1002B000ED00000898070020980D00209809002004
:1002C0009809002070B5064600F064FA056806F14A
:1002D0000B0020F00704B4429CBF002070BD2B46E9
:1002E0006A68BAB11068A04210D304F108018842CC
:1002F0003CBF5068586007D35168101941601168BD
:10030000091B016058601460101D70BD13465268CF
:10031000002AE7D12146284600F044FA0028DED121
:1003200070BD00000A46014900F082BB8C06002027
:100330000FB4044910B503AA029800F079FB10BC71
:100340005DF814FB8C06002070B50C460546012AAA
:1003500005D02878800600D5EA69002302E0012351
:1003600005E05B1C934202D2E05C0028F9D1A86949
:10037000E618C01AA861286A18442862284600F0C6
:1003800082FA04E0D5E9012114F8010B9047B44248
:10039000F8D3284600F08DFA70BD00002DE9F04139
:1003A0000646002410687529314616A510D000F0C5
:1003B00091FA002802DA404213A507E031688A0763
:1003C00001D512A502E0490704D511A5012401E0D9
:1003D00000F089FA00210A2206F1240709E0B0FBA7
:1003E000F2FCB0FBF2F302FB1C00303078541846EC
:1003F000491C0028F3D123462A463046BDE8F04187
:1004000000F07ABA000000002D0000002B00000070
:10041000200000002DE9F05F894604464FF0000AF5
:10042000DFF874B1FB44C0F820A02046E16888479B
:10043000002874D0252806D0D4E901219047206AED
:10044000401C2062F1E700265F462046E1688847AD
:100450002028054607DB312D05D2781910F8200C2D
:1004600008B10643F1E7B00701D526F00406C4F849
:100470001CA00027C4F818A02A2D09D0284603F094
:10048000BDFD38B304EB8708303DC8F8185019E0BB
:1004900059F8041B204604EB87029161E168884704
:1004A000012F054618D1E069002820DA26F0200641
:1004B0001DE0D8F8180000EB800005EB4000303854
:1004C000C8F818002046E1688847054603F096FD05
:1004D0000028EED1012F0AD02E2D08D12046E16848
:1004E00088477F1C0546022F46F02006C4DBA06922
:1004F000002803DA404246F00106A061F00701D06F
:1005000026F010066C2D0BD0682D09D04C2D39D05B
:100510006A2D35D0742D35D07A2D33D016E038E0E1
:10052000E1682F4620468847B842054609D16C2F1E
:1005300026D04FF48060E168064320468847054690
:1005400004E06C2F1AD04FF4807006430DB3A5F170
:100550004100192802D8203546F400664A4629464B
:10056000204626604E46FFF71BFE80B101280BD0C7
:10057000F61D26F0070000F1080956E74020E4E7E1
:100580008020D8E70020D6E706F104094DE7284689
:1005900052E7206ABDE8F09FF64700000022CBB288
:1005A00010F8011B994200D1421E0029F8D11046D3
:1005B000704710B5431C02E010F8011B71B18107B0
:1005C000FAD14FF0013202C88C1A8C4314EAC211DE
:1005D000F9D0C01A0A0603D0C01E10BDC01A10BD43
:1005E0000A0401D0801E10BD0902FCD0401E10BDBF
:1005F000032A40F2308010F0030C00F0158011F84F
:10060000013BBCF1020F624498BF11F801CB00F826
:10061000013B38BF11F8013BA2F1040298BF00F87A
:1006200001CB38BF00F8013B11F0030300F0308329
:10063000083AC0F0088051F8043B083A51F804CB5E
:10064000A0E80810F5E7121D5CBF51F8043B40F824
:10065000043BAFF30080D20724BF11F8013B11F82F
:1006600001CB48BF11F8012B24BF00F8013B00F873
:1006700001CB48BF00F8012B70474FF0000204295E
:10068000C0F0128010F0030C00F01B80CCF1040CC1
:10069000BCF1020F18BF00F8012BA8BF20F8022BF5
:1006A000A1EB0C0100F00DB85FEAC17C24BF00F89B
:1006B000012B00F8012B48BF00F8012B70474FF0C9
:1006C000000200B5134694469646203922BFA0E8A2
:1006D0000C50A0E80C50B1F12001BFF4F7AF0907AE
:1006E00028BFA0E80C5048BF0CC05DF804EB89009F
:1006F00028BF40F8042B08BF704748BF20F8022BE2
:1007000011F0804F18BF00F8012B70474FF0013CEB
:1007100050F8042B51F8043B9A4221D1A2EB0C0370
:10072000934313EACC1317D150F8042B51F8043B30
:100730009A4215D1A2EB0C03934313EACC130BD1CD
:1007400050F8042B51F8043B9A4209D1A2EB0C0358
:10075000934313EACC13DBD04FF00000704700BF87
:10076000D01A01BAB1FA81F101F0180122FA01F0B0
:10077000CB40C1F12001DBB2C0B2C01A2CFA01F3A8
:10078000D11A914311EAC311E6D1704770477047FF
:1007900070470000004870473C07002070477047D2
:1007A0007047704738B504460A4600206946AFF3E3
:1007B0000080002808BF38BD02460099204600F09E
:1007C000A1FA012038BD012000F05EBFF8B5AFF3FB
:1007D0000080054600200C46102000BF0646A819E0
:1007E000A0420DD9324669460020AFF300800700D1
:1007F00008BF00F049FF0098A04218BF0546C41981
:10080000FFF7C8FF05600746F01D20F007004619F6
:10081000284600F00AF8B44208BFF8BDA21B3146D2
:100820003868BDE8F84000F06DBA00210160C0E909
:10083000011070471020704770B50446051FFFF780
:10084000A9FF0068002C14BF446870BD002C18BFBD
:10085000AC423CBF20466468F8D301680A18AA423B
:1008600018BF456003D12A68054611440160286815
:100870004119A1421CBF6C6070BD6168696021684C
:100880000844286070BD70B5044685690068C106DB
:1008900001D5302600E02026C00707D070BDD4E97E
:1008A000012130469047206A401C20626D1EF6D51B
:1008B00070BD70B5044685690078C00707D170BD6A
:1008C000D4E9012120209047206A401C20626D1E3F
:1008D000F6D570BD09684A0501D540B27047C90513
:1008E000FCD500B2704709684A0501D5C0B270470F
:1008F000C905FCD580B270472DE9F0470D469946F1
:100900009246044600F124080168880604D5E0698F
:1009100021F01001216000E00120A84201DD471B09
:1009200000E00027A1697A1902EB0900081AA0610A
:100930002078C00602D42046FFF7A5FF002608E075
:10094000D4E901211AF806009047206A401C761C61
:1009500020624E45F4DB2078C0060AD52046FFF71A
:1009600092FF06E0D4E9012130209047206A401C24
:100970002062381EA7F10107F4DC07E0D4E9012169
:1009800018F805009047206A401C2062281EA5F137
:100990000105F3DC2046FFF78CFF2078000602D526
:1009A0000220BDE8F0870120FBE711680268006AB9
:1009B000530501D508700AE0D30501D5088006E08B
:1009C000130603D5C217C1E9000200E00860012048
:1009D0007047000001694A1C02610878704700B541
:1009E0008FB0CDE901310021059105497944CDE968
:1009F000031011466846FFF70DFD0FB000BD000063
:100A0000E5FFFFFF10B5436913B1AFF3008001E0CC
:100A1000FFF79AFC012010BD127800F124010A7042
:100A200000224A700122EDE711684FF0FF32E9E73A
:100A3000074B70B50D467B44FFF7D1FF04462846AF
:100A400000F062FD10B14FF0FF3070BD204670BD68
:100A5000333900002DE9FF5F15468A460446DFF86A
:100A6000AC80F8440027D8E900103E46CDE90010DC
:100A700010E03AF816106A4602A800F0E5FD411CA5
:100A800007D02178890603D5E269391891420DD83B
:100A90000744761C2078800602D5E069B84205DD5F
:100AA000AE42E6DB3AF816000028E2D1A069C01B8E
:100AB000A0612046FFF7E7FED8E90010CDE900105D
:100AC000002017E03AF818106A4602A800F0BCFDB2
:100AD000B0F1FF3F81460BD000250DF1080B05E07A
:100AE000D4E901211BF8050090476D1C4D45F7D353
:100AF00008F10100B0428046E4DB206A38442062FD
:100B00002046FFF7D6FEBDE8FF9F0000CA41000067
:100B10002DE9F0418046D21D22F007020025D2E9DE
:100B20000002F52915A614D0011E72F1000106DAA3
:100B30000023D0EB030063EB020211A608E0D8F813
:100B400000108B0701D50FA602E0490701D50EA6BC
:100B500001251146002408F1240704E000F0ECF818
:100B600030323A55641C50EA0102F7D12B46324626
:100B700021464046BDE8F041FFF7BEBE0000000040
:100B80002D0000002B0000002000000030B40021E8
:100B900000F1240408E002F00705D208303542EAEB
:100BA0004372DB086554491C52EA0305F3D104681B
:100BB000002310A2250707D5A40600D421B1C469DB
:100BC00001230DA2641EC46130BCFFF795BE10B5B1
:100BD000044621461068FFF786FE02462046BDE81F
:100BE00010400023D2E7D21D22F00701D1E90023F3
:100BF000CCE700000000000030000000F0B40D461B
:100C00000188090502D5214C7C4402E01F4C7C443C
:100C10000E34002100F1240608E002F00F0712094B
:100C2000E75D42EA03721B097754491C52EA030745
:100C3000F3D102780023120704D5702D06D009B134
:100C4000022311342246F0BCFFF756BE01231034B4
:100C5000F8E770B504460D4621461068FFF743FEDD
:100C6000024629462046BDE870400023C6E7D21D53
:100C700022F00703D3E90023C0E70368126843F0BA
:100C8000200303600823C3610023B7E72C40000062
:100C900010B5203AC0F00B80B1E81850203AA0E817
:100CA0001850B1E81850A0E81850BFF4F5AF5FEA4B
:100CB000027C24BFB1E81850A0E8185044BF18C9FE
:100CC00018C0BDE810405FEA827C24BF51F8043BA5
:100CD00040F8043B08BF7047D20728BF31F8023BF9
:100CE00048BF11F8012B28BF20F8023B48BF00F88D
:100CF000012B7047004870473407002000487047B8
:100D000034070020034640688C46002818BF8842FC
:100D10003CBF03464068F8D318681844884207D09F
:100D20000CF1030020F00700001D411A521A014681
:100D3000081D0A60FFF780BD30B5B0F10A024FEA26
:100D4000900E71F100034EEA817EB0EB0E0061EB74
:100D500091014FEA101E4EEA017E10EB0E0041EBAE
:100D600011114FEA102E4EEA016E10EB0E0041EB0E
:100D700011214FEA104E4EEA014E10EB0E0041EBEE
:100D80001141401841F100014FEAD00040EA4170A2
:100D90004FEAD10110EB80054FEA810444EA9074D8
:100DA00044EB01046D1944EB0404521BA3414FF0C2
:100DB000000348BF0A3200D530BD401C41F100019C
:100DC00030BD70472DE9FF4F0C461E464FF0FF37F0
:100DD0008BB0D2E90001DDF860800A908A46C1F349
:100DE0000A5505B93D46002108464FF00000BAF10A
:100DF000000F00F4400005DA00EB80004FF44001E2
:100E000001EA50004FEA9059B9F1010F00DDB946EF
:100E10000A9850EA4A000ED044F61050A5F2FF3569
:100E200045432F14B8F1000F1ED07542291E1EDD58
:100E3000C9F100021CE0B8F1010F4FF0000001D031
:100E4000302103E0F24305E02154401CB042FBDBBB
:100E500030460022002121540B99C1F80880C1E9D5
:100E600000200FB0BDE8F08FBD1B6D1CDEE74A46C9
:100E700000DA694206A800F0B3FC06AB93E807006D
:100E800003AB83E8070050460A9900F06FFF8DE836
:100E90000700A0F500501F3800900398002D0ADDD0
:100EA00042F21F014A460844002303A90390684602
:100EB00001F0D8F909E0A0F500504A461F38002398
:100EC00003A90390684601F0E2F98DE807000004E9
:100ED000000C03D04FF0FF30410800E01046B8F19D
:100EE000000F03D00022009215461EE0751E05D4A7
:100EF000FFF722FF303262556D1EF9D5B34601224D
:100F0000084302D000227F1C04E02078302801D161
:100F100000227F1E002A099784D01DE0112D07DAD8
:100F2000FFF70AFF303262556D1C50EA0102F5D11D
:100F3000084302D00098C8B10EE00021681E05E009
:100F4000235C625C63542254401E491C8142F7DBDF
:100F5000AB46A81B401E0990002004F80B000B981C
:100F6000099AC0F80880C0E9002B7AE711264FF0F3
:100F7000000857E72DE9F04F88460446D21D22F0BD
:100F8000070191B0D1E90001CDE90A0103F012F89F
:100F900002460B98C00F01D02D2007E02068810782
:100FA00001D52B2002E0202101EAC000032A09908C
:100FB00001D0072A05DB03464146204600F0D0FB5E
:100FC0000BE12078800601D5E06900E00620B8F149
:100FD000650F814606D0B8F1660F18D0B8F1670FDB
:100FE00070D131E00020B9F1110F009001DB112325
:100FF00001E009F101030AAA01A90CA8FFF7E2FE2A
:10100000DDE90C70002609F10105834647E0012067
:101010004B4600904FF000470AAA01A90CA8FFF721
:10102000D1FEDDE90DB00C995D46002610B909F13D
:1010300001000D18B9EB050003D4C0F1FF3609F12A
:101040000105A5EB09002BE0B9F1010F01DA4FF022
:1010500001090020B9F1110F0090484601DD11236C
:1010600000E003460AAA01A90CA8FFF7ABFEDDE9E0
:101070000C704D4600268346207800070AD4AB4505
:1010800000DA5D4601A8012D04DD411911F8011CAB
:10109000302907D04F4502DA17F1040F04DA012096
:1010A00082460FE06D1EEEE7002F02DCED1B3E4492
:1010B00003E0781CA84200DD7D1CB81B00F1010A8A
:1010C0004FF000472078000703D4AA4501DB4FF01A
:1010D000FF3A0021B7F1004F0DF143088DF843109E
:1010E00024D002202B23002F01DA7F422D230A2156
:1010F000021EA0F1010000DC5FB197FBF1FC97FB41
:10110000F1F201FB1C7C17460CF1300C08F801CD04
:10111000EEE7A8F1010003702188090501D54521FA
:1011200000E06521A0F1010800F8011C09980FA951
:10113000A1EB0807FF1D00B10120411901EBEA7086
:10114000A1693844081A401EA0612078C00602D464
:101150002046FFF798FB099828B1D4E90121904770
:10116000206A401C20622078C00622D52046FFF766
:101170008AFB1EE0002E04DBB34502DD01A8805D82
:1011800000E03020D4E901219047206A401C206211
:10119000761CAAF101005FEA000A0AD100F0DCFA2D
:1011A000C0680168405CD4E901219047206A401C76
:1011B0002062281EA5F10105DCDC07E0D4E901214D
:1011C00018F8010B9047206A401C2062381EA7F1D6
:1011D0000107F3DC2046FFF76CFB032011B041E66A
:1011E0002DE9F04F04460D46D21D22F0070089B0CC
:1011F000D0E900974846394602F0DCFE0246F80F77
:1012000001D02D2307E02068810701D52B2302E0C0
:10121000202101EAC0038DF820300BB1012000E04D
:101220000020032A824601D0072A04DB29462046F3
:1012300000F096FA3FE12078800601D40D2500E009
:10124000E569C7F30A560D2D49DA00214FEA175B0D
:1012500008464FF00000002F00F4400007DA00EBD2
:1012600080004FF4400100EBD07001EA600081156E
:10127000012901DD4FF0FF3100224FEA850CBCF15E
:10128000180F06D31346ACF118004FF08052C2403D
:1012900003E04FF4801323FA0CF30CF10C0CBCF1B7
:1012A000200F04D3ACF1200C09FA0CF001E007FA8E
:1012B0000CF000294FF0004801DD18B90FE00ED105
:1012C00040450CD319EB02095F4121B9404502D1D9
:1012D0009F4329EA0209BBEB175F00D0761C2088E8
:1012E000000502D57B48784402E07A4878441938F2
:1012F00008AA302302F80A30037C0AF10101002E0B
:101300000AF1020A53546A4602DC4FF0300101E050
:101310004FF031014FF001088DF8001002D0A6F215
:10132000FF3603E059EA470100D06B4E002D02DC86
:101330002178090704D54FF002082E218DF80110FD
:10134000C44600210BE0C7F303433F01C35C491CC3
:101350006D1E02F80830052908F1010801DA002D98
:10136000F1DC00210CE000EB1973491C1B786D1EA9
:10137000082902F808304FEA091908F1010801DAD2
:10138000002DF0DC21688B0602D516E0A8F10108DB
:10139000E04505DD02EB080313F8013C302BF5D0E6
:1013A000B8F1000F09DD02EB080313F8013C2E2B06
:1013B00003D1090701D4A8F10108002D05DD3E2164
:1013C00002F808106D1E08F10108407C002E02F89A
:1013D000080008F1010804DA2D20764202F808001E
:1013E00002E02B2002F808000A214FF47A708642AE
:1013F00008F101080BDB96FBF0F3303302F80830FC
:1014000096FBF0F308F1010800FB136601E0642E7F
:101410000CDB642096FBF0F3303302F8083096FBC7
:10142000F0F308F1010800FB136601E00A2E06DB69
:1014300096FBF1F0303002F8080008F1010896FB45
:10144000F1F001FB1060303002F80800A16908F1EA
:10145000010808EB050202EB0A00081AA0612078D7
:10146000C00602D42046FFF70EFA216A08AE01EB4F
:101470000A00206204E0D4E9012116F8010B90472C
:10148000BAF1010AF7D22078C00602D52046FFF74C
:10149000FAF96E4609E016F8010B3E280FD0D4E9A0
:1014A00001219047206A401C2062B8F10108F2D265
:1014B0002046FFF7FEF909B00320BDE8F08F206A4F
:1014C0002844206203E0D4E90121302090476D1EBA
:1014D000EBD3F8E78939000002FCFFFF10B5436940
:1014E00013B1AFF3008001E0FFF7B4FA012010BDA3
:1014F000128800F1240182840022C2840122EDE7D7
:1015000011684FF0FF32E9E7007B00F08000704780
:1015100010B542485421FFF7D2F841485421FFF753
:10152000CEF840485421FFF7CAF83F493B483C4AAF
:101530003F4B08603D490A603A491960531C0365F6
:10154000481C1065012008653B48344A39A178449D
:1015500000F0DCF920B9384878440A3800F080FA05
:1015600037482F4A35A1784400F0D0F920B93448E3
:1015700078440A3800F074FA32482A4A2FA1784495
:1015800000F0C4F920B92F4878440A3800F068FA0E
:1015900040232248DC000021224600F093F920B1CC
:1015A00025487844543800F05BFA1D482246402311
:1015B000002100F087F920B121487844543800F028
:1015C0004FFA184822461023002100F07BF900282A
:1015D00006D01C487844BDE81040563800F040BAA8
:1015E00010BD104870B5006D20F001040B4800F0EC
:1015F00003FA0B4800F000FA0A4800F0FDF909E090
:10160000206D20F00105204600F0F6F92046FFF796
:1016100013F92C46002CF3D170BD000038060020D1
:101620008C060020E0060020240300202803002070
:101630002C03002072000000343700007700000007
:10164000203700000C37000070B516460C460546E2
:1016500000F07AF8036893F80101012806D0FF2C06
:101660000FD8185D68B101202C7070BDD3F8070148
:101670003246214603F2071303442846BDE8704072
:1016800018474FF0FF3070BD10B500F0F1F9BDE81C
:10169000104000F0E0B90EB5CDE90001FEF789FF7A
:1016A000029069460120ABBE0EBD08B569460090A8
:1016B0000220ABBE08BD1FB58DE8070069460520B6
:1016C000ABBE04B010BD1FB58DE80F006946062003
:1016D000ABBEF6E708B5694600900920ABBE08BD71
:1016E0001CB5CDE9000169460A20ABBE1CBD7047A0
:1016F00008B5694600900C20ABBE08BD7047754622
:10170000FFF7F8FAAE4605006946534620F0070099
:10171000854618B020B5FEF7C3FDBDE820404FF068
:1017200000064FF000074FF000084FF0000B21F0CB
:101730000701AC46ACE8C009ACE8C009ACE8C00998
:10174000ACE8C0098D46704710B500F005F8001DE3
:1017500010BD00BF6D3400000048704754070020E2
:101760002DE9F0411F46044603260168072A01F4CB
:10177000006004DB08B116A505E016A503E008B17A
:1017800015A500E015A521F010002060A069C01E7D
:10179000A0610FB1401EA0612046FFF774F84FB161
:1017A000D4E9012138469047206A401C2062C01CC1
:1017B000206206E0206AFAE7D4E9012115F8010B5E
:1017C0009047761EF8D22046FFF773F8BDE8F08107
:1017D0004E414E006E616E00494E4600696E6600D5
:1017E0002DE9F047814616468AB0354878440DC841
:1017F0008DE80D0032487844801C03AC0DC884E8A5
:101800000D0041F69B300844372190FBF1F290FB2C
:10181000F1F5A5F1800501FB12041B3C02D56442E1
:10182000012000E00020DFF898A080460027FA445D
:10183000AAF1BE0A0EE0E0070AD03246684607EB7E
:10184000470101230AEB810100F021FD8DE807002B
:1018500064107F1C002CEED1194F7F44AE3F19E07D
:10186000E80715D007EB04100DF1180A90E80E00F8
:101870008AE80E00C068F04201D1981908903246FB
:10188000012306A903A800F002FD03AB83E80700CB
:101890006D10641C002DE3D14FF001033246694600
:1018A000B8F1000F03A802D000F0DCFC01E000F06A
:1018B000EEFCC9E90001C9F808200AB0BDE8F087CC
:1018C0002035000070B5C468A50713D0650211D497
:1018D000B2F5807F09D0B2F5007F06D0B2F5806FF7
:1018E00008D1012300F1240106E05D1E6FF07F4660
:1018F000B54201D3012070BD0161C361416024F490
:1019000070611143C160002070BD00002DE9F041FD
:101910000C4607461646104600F06EF82078611C0B
:1019200061280AD0722802D077283CD102E0012534
:10193000002405E00225042402E0082448F2020500
:1019400011F8010B2B2806D0622809D011F8010CE0
:1019500074280AD00BE045F0030544F00204EFE7D9
:1019600045F0040544F00104EAE744F01004384669
:101970002146FFF790FE411C15D0002131617160B6
:101980004FF40071F560F1617061200704D53046B5
:101990000222002100F09AF8306D40F0010030651D
:1019A0003046BDE8F0810020FBE72DE9F0410D460F
:1019B0000646104C206DC10704D0410804D020F029
:1019C0000104F7E722460EE05420FEF77BFC0700F7
:1019D0000ED0206D47F001010843542120653846A0
:1019E000FEF76DFE3A4629463046BDE8F0418DE7E8
:1019F0000020D6E7380600202DE9F04704464FF0D6
:101A000000094FF0FF37C568D4E90486A80707D05E
:101A1000204600F00BF93046FFF747FE002802DAB7
:101A20003846BDE8F087280502D54046FEF704FF9A
:101A30004C212046FEF743FE206D20F0010020657A
:101A40004846EEE710B50446AFF300802046BDE8F7
:101A50001040FEF710BC002801D000F031B87047EC
:101A600010B500F041F9BDE81040FFF7F4BF0000E9
:101A700010B5012805D0002103A000F01BF90120BA
:101A800010BD09A1F8E7000053494752544D454D98
:101A90003A204F7574206F662068656170206D650F
:101AA0006D6F7279000000003A2048656170206D0A
:101AB000656D6F727920636F727275707465640002
:101AC00001491820ABBEFEE7260002002DE9F041D7
:101AD000044616460D464769007B80072ED03846DF
:101AE000FFF7F8FD50BB3EB3012E02D0022E25D1E8
:101AF00004E0204600F019F905441DE03846FFF7E0
:101B0000F7FDE168002841F01001E16005DA2046A8
:101B100000F058F80120BDE8F081C9030BD56268D8
:101B2000E16A914200D81146A26911442269891ADA
:101B3000814200DD08460544002D01DA0220EAE773
:101B4000E16A6068E268814206D29103E06203D5EF
:101B500022F4003141F01002A6690027AE4213DCE6
:101B6000E16A814201D90B4600E0034603EB060C13
:101B70002369ACEB030CAC4506DD814201D98C46F0
:101B800000E084469C4505D1A760276042F0200014
:101B9000A5620DE0AD1BE669AE1B8142A66000D9CF
:101BA0000846C01A281A20605819606022F02000E8
:101BB00003490840E060002084F84870ABE700006B
:101BC000BFCFD7FFC16821F4001141F08001C1608F
:101BD00000218160016070472DE9F047814614467D
:101BE0000E464FF0FF383248D5685769054209D094
:101BF0003846A169FFF774FD002811DB2C48C0436B
:101C00000540E5602B46324649463846FFF753FD0E
:101C1000A16920F00042B21A11440028A16103D04A
:101C20002046FFF7CFFF4046BDE8F08770B5044679
:101C30000569C06A6168884200D80846E16821F4F5
:101C40002011E160C90312D5A84208D02246411BE9
:101C50002846FFF7C1FF10B14FF0FF3070BD0020E4
:101C6000E562C4E90150E06820F48030E0600020C3
:101C700070BD10B50446C06820F02000E060A16A85
:101C8000A06988420DD02046FFF7D0FFE06820F41D
:101C9000405040F01000E060A06AA0612069E0625E
:101CA000606044F24001E0688843E06010BD0000DD
:101CB0001000020070B505460C460A2000E06D1CBD
:101CC00000F02CF835B128780028F8D102E0641C27
:101CD00000F024F814B120780028F8D1BDE8704055
:101CE0000A2000F01BB8000010B5014602A0FFF763
:101CF000E1FF012010BD00005349475254524544B2
:101D00003A2052656469726563743A2063616E2794
:101D100074206F70656E3A200000000008B56946B7
:101D20008DF800000320ABBE08BD10B50146C268A7
:101D3000900703D0900607D5886A0AE0FEF7DEFF19
:101D400001210160881E10BD8B69486818440B6929
:101D5000C01A91F848301BB191F84910401A10BDD3
:101D60001103FCD50028FADD401E10BD5FEA400CCF
:101D700008BF91F0000F4FEA8C234FEAC12243EADB
:101D800051514FEA1C5018BF00F5F0404FEA3000A7
:101D900018BF41F000415FEA6C5C00F02980BCF1A3
:101DA000FF3F08BF40F080407047130C06BF12048D
:101DB0004FF0100C4FF0000C130E04BF12020CF188
:101DC000080C130F04BF12010CF1040C930F04BF95
:101DD00092000CF1020CD30F04BF52000CF1010C65
:101DE00011464FF00002A0F11F00A0EB0C0070475D
:101DF00011F0004F08BF704731F000413FF4D5AFFC
:101E00000B0C06BF09044FF0100C4FF0000C0B0E2A
:101E100004BF09020CF1080C0B0F04BF09010CF1FF
:101E2000040C8B0F04BF89000CF1020CCB0F04BF14
:101E300049000CF1010CCCF12003A0EB0C0022FABC
:101E400003F302FA0CF241EA030100F101007047CA
:101E500020F07F4C80EA030023F07F47ACEB0703C0
:101E600003F57C5300F0004003F1FF032DE98049A6
:101E70004FEA154B09B44FEA144325EA0B4E24EA06
:101E800003480FF2042606EB132749083E785FEA61
:101E9000320203FB0667C7F5000707FB06F64FEAA9
:101EA00054374FEAD64606F1020607FB066CCCF122
:101EB000005C4FEA1C472CEA074C07FB06F40CFBBE
:101EC00006F504EB15464FEA961634BF00204FF096
:101ED00000404FEAD13706FB07FC4FEA1C4C0CFBD5
:101EE0000BF7D21B03FB0CF761EB07010CFB0EF7A2
:101EF000B0EB074072EB17420CFB08F734BFA2EBC4
:101F00000742B2EB074261EB17414FEA0C444FEA3C
:101F1000910706FB07FC4FEA1C4C0CFB0BF7B0EBE0
:101F2000C74072EB573203FB0CF734BFA2EBC7423A
:101F3000B2EBC74261EB57310CFB0EF7B0EBC700B9
:101F400072EB57720CFB08F734BFA2EBC702B2EB7F
:101F5000C70261EB5771039F4FEA816141EA921119
:101F600004EBCC044FEAD1374FEA826206FB07FC50
:101F700042EA90124FEA80604FEA1C4C0CFB0BF7D0
:101F8000D21B03FB0CF761EB07010CFB0EF7B0EB68
:101F9000074072EB17420CFB08F734BFA2EB074275
:101FA000B2EB074261EB17414FEA8C554FEA9107BC
:101FB00004EB9C2406FB07FC4FEA1C4C0CFB0BF7C4
:101FC000B0EBC74072EB573203FB0CF734BFA2EB08
:101FD000C742B2EBC74261EB57310CFB0EF7B0EBD7
:101FE000C70072EB57720CFB08F734BFA2EBC702B5
:101FF000B2EBC70261EB577115EB4C254FEA8161DB
:1020000041EA92114FEA82624FEAD13742EA9012D6
:1020100006FB07FC44F100044FEA80604FEA1C4CC9
:102020000CFB0BF7D21B03FB0CF761EB07010CFB5E
:102030000EF7B0EB074072EB17420CFB08F734BF0A
:10204000A2EB0742B2EB074261EB174115EB1C15FF
:102050004FEA813141EA92414FEA823242EA9042AC
:102060004FEA80304FEA0C7644F1000448EA03431B
:102070004EEA0B484FF0000EB2EB080C71EB030771
:1020800024BF624639464EEB0E0E4FF0000B00188F
:10209000524149414BEB0B0BB2EB080C71EB0307C0
:1020A0007BF1000B24BF624639464EEB0E0E4FF01B
:1020B000000B0018524149414BEB0B0BB2EB080CE3
:1020C00071EB03077BF1000B24BF624639464EEBF0
:1020D0000E0E51EA020718BF46F0010616EB0E7607
:1020E00055F1000254F1000103D5BDE88901BDE8B6
:1020F0000088BDE88901BDE80048B619524141EBAE
:102100000101A3F10103704780807F7E7D7C7B7A93
:102110007978777676757473727171706F6E6E6D93
:102120006C6C6B6A6A696868676666656464636339
:1021300062616160605F5F5E5E5D5D5C5C5B5B5ABF
:102140005A5959585857575656555555545453532C
:1021500052525251515050504F4F4F4E4E4D4D4D87
:102160004C4C4C4B4B4B4A4A4A49494948484847D2
:102170004747474646464545454444444443434310
:102180004342424242414141002B9C4630D47700B9
:102190002BD01CB54FEA370703B44FF010004FF0B7
:1021A0001001BAF1000F06D0BCF1000FDCBF40F007
:1021B000080040F008014FF000000FBCBDE81040DF
:1021C0000BF1010BBBF1010F08BF5FEA170722BF3C
:1021D00012F1010211F101014FF0004143F100033E
:1021E00000F0004043EA00007047F9D35708D0E7F9
:1021F00046EA064613F1400F4FEA16461FDD13F17B
:10220000200FDFBF16430A46002120335B42BED0B9
:10221000C3F1200746EA064602FA07F74FEA1646D8
:1022200046EA0706C3F1200722FA03F201FA07F78C
:1022300021FA03F14FF0000342EA0702A7E746EA5A
:10224000020646EA06464FEA164646EA0106BCBFC3
:1022500046EA0646360C4FF000034FF000024FF0FE
:10226000000194E72DE9804C9A46934670B491E8BA
:10227000380007C831EA400C48BF34EA430C03D5A4
:10228000FFF7E6FDFFF780FFF0BCBDE8008C2DE90D
:10229000804C9A46934670B491E8380007C810F015
:1022A000804F08BF13F0804F03D100F005F8FFF70F
:1022B0006BFFF0BCBDE8008C20F07F4780EA030094
:1022C00023F07F4C07EB0C03A3F57C5300F0004098
:1022D000A3F1FE0392F0000F00F0B38095F0000F21
:1022E00000F077802DE901494FEA11404FEA14468A
:1022F00021EA004800FB06FC24EA064708FB06F634
:1023000007FB08F800FB07F718EB06484CEB164CE8
:102310004FEA124B18EB07484FEA15464CEB1740B3
:1023200022EA0B4E0BFB06FC25EA06470EFB06F6DF
:1023300007FB0EFE0BFB07F71EEB064E4CEB164C95
:102340004FF000061EEB074E4CEB174B18EB0B083B
:1023500040F1000018EB0E0B58EB000840F10000B4
:102360008F1A4FF000013CBFC943661B14BFB5EB89
:10237000040C00213CBFC943F61B4FEA17444EEA48
:102380008E0E27EA04454FEA1C4704FB07622CEA3D
:10239000074C05FB07F70CFB05F604FB0CFC16EBE2
:1023A000074642EB174216EB0C4642EB1C421BEB76
:1023B000060658EB0202414146EA9E0601D5BDE8F9
:1023C0000189B619524141EB0101A3F10103BDE8B6
:1023D00001894FEA14454FEA114724EA054621EAEC
:1023E000074C05FB07F406FB07F70CFB06F105FBA2
:1023F0000CFC11EB074144EB17444FEA124711EB79
:102400000C4144EB1C4422EA074C05FB07F206FB97
:1024100007F70CFB06F605FB0CFC16EB074642EB38
:10242000174216EB0C4642EB1C456A1854F10001AA
:1024300048BF7047B619524141EB0101A3F10103B6
:10244000704795F0000F37D04FEA11424FEA14471A
:1024500021EA024624EA074C02FB07F106FB07F7D4
:102460000CFB06F402FB0CFC14EB074441EB174198
:102470004FEA154714EB0C4441EB1C4125EA074C8D
:1024800002FB07F506FB07F70CFB06F602FB0CFC4C
:1024900016EB074645EB174516EB0C4645EB1C4281
:1024A000121951F1000148BF7047B619524141EB72
:1024B0000101A3F1010370474FEA14454FEA1147A8
:1024C00024EA054621EA074C05FB07F106FB07F75E
:1024D0000CFB06F24FF0000605FB0CFC12EB07426A
:1024E00041EB174112EB0C4251EB1C4148BF7047C6
:1024F000921841EB0101A3F10103704710B509499E
:10250000094801F0BFF8074C2188002909D0064886
:1025100001F0DEF84FF400710348FEF7AEF800203A
:10252000208010BD2003002038040020FEE7704703
:1025300072B6FEE770B5044600F094F90546601CDB
:1025400002D004480078044400F08CF9401BA042FB
:10255000FAD370BD000000202DE9F04300233E4F68
:102560000F2573E001229A400A406DD023F0030446
:10257000E619D6F808809C074FEA147C05FA0CF996
:1025800009EA0804DFF8D480404502D14FF0000882
:1025900016E0DFF8CC80404502D14FF001080FE093
:1025A000DFF8C080404502D14FF0020808E0DFF8B4
:1025B000B880404502D14FF0030801E04FF0040815
:1025C00008FA0CF8A04522D1284CD4F800C02CEA17
:1025D000020CC4F800C0241DD4F800C02CEA020C80
:1025E000C4F800C0214C0C34D4F800C02CEA020C12
:1025F000C4F800C0241FD4F800C02CEA020CC4F8B0
:1026000000C0D6F808C02CEA090CC6F808C0FF2A9A
:1026100001D8064601E000F104064FEA830401D91F
:10262000A4F12004D6F800C005FA04F82CEA080C3E
:102630004FF0040808FA04F84CEA080CC6F800C089
:10264000C46824EA0204C46003F1010331FA03F20E
:1026500088D1BDE8F083000000000140000801407F
:10266000000C014000100140001401400004014032
:102670002DE9F84FDFF8B8910024A9F1040B2346A7
:102680000F2709F1040AABF1040EC9E00125A540AA
:102690002A40AA427DD1674ED1F804C0ACEB0608AF
:1026A000B44532D014DCBCF1030F3AD009DCBCF1E4
:1026B000000F2AD0BCF1010F1CD0BCF1020F31D1A8
:1026C0001DE0BCF1110F17D0BCF1120F2AD119E097
:1026D000B8F5881F19D006DCB8F5803F15D0B8F5DD
:1026E000801F1FD111E0B8F5001F0ED0B8F5041FF0
:1026F00018D10AE0CB6815E0CB681B1D12E0CB684F
:1027000008330FE0CB680C330CE08B682BB1012B46
:102710004FF0080303D0456104E0042302E00561A3
:1027200000E00023FF2A01D8064601E000F104067C
:102730004FEA840501D9A5F12005D6F8008007FAF3
:1027400005FC28EA0C0803FA05F548EA0508C6F86E
:1027500000804D68ED0062D5374DAE6946F0010648
:10276000AE61AD6924F0030605F001050095334D17
:1027700006EB050CDCF80850A607360F07FA06F83A
:1027800025EA0805DFF8B880404503D14FF000087E
:1027900017E044E0DFF8AC80404502D14FF001087B
:1027A0000FE0DFF8A480404502D14FF0020808E0B6
:1027B000DFF89880404502D14FF0030801E04FF068
:1027C000040808FA06F848EA0508CCF808804D68BD
:1027D000D9F80060ED024D4601D5164300E096435E
:1027E0002E604D68DAF80060AD02554601D51643FB
:1027F00000E096432E604D68DBF80060AD035D4657
:1028000001D5164300E096432E604D68DEF8006067
:10281000ED03754601D5164300E096432E60641C17
:102820000D682A46E5407FF431AFBDE8F88F00001F
:102830000804014000001110001002400000014097
:1028400000080140000C014000100140001401404C
:102850008068084000D0012070470AB101617047CC
:102860000904FBE701488068704700000000002071
:10287000024881680278114481607047000000209E
:10288000074810B5016841F010010160032000F015
:1028900067F80F2000F006F800F024F8002010BDC3
:1028A0000020024070B50D4D04464FF47A7128782F
:1028B000B1FBF0F00A490968B1FBF0F000F011FE3D
:1028C00048B9102C07D200222146501E00F028F8EB
:1028D00000206C6070BD012070BD00000000002071
:1028E0000C0000200C4808B5816941F001018161AC
:1028F000816901F001010091C16941F08051C1611C
:10290000C06900F0805000900448416821F0E06107
:1029100041F00071416008BD00100240000001401C
:10292000F0B40E4B1B680C46C3F30223C3F107053A
:10293000042D00D90425191D072901D2002300E028
:10294000DB1E012606FA05F1491E214099409E40F2
:10295000761E16403143F0BC01F040BB0CED00E0A8
:10296000064900F0070208684FF6FF03184040EAE6
:102970000220034A10430860704700000CED00E09D
:102980000000FA052DE9F0470F46050061D0434EDF
:10299000306800F00700B84209D2306820F0070024
:1029A00038433060306800F00700B84251D12868E1
:1029B0003B4C810712D5400703D5606840F4E060C6
:1029C00060602878000703D5606840F4605060605C
:1029D0006068A96820F0F000084360602878C007AC
:1029E00028D06868012810D02168022810D08907F3
:1029F00000292EDA616821F0030101436160FFF7CD
:102A000031FF804641F288390DE021688903EFE704
:102A10008901EDE7FFF726FFA0EB0801494502D940
:102A20000320BDE8F0876068696800F00C00B0EB37
:102A3000810FEFD1306800F00700B8420BD9306841
:102A400020F0070038433060306800F00700B842DB
:102A500001D00120E5E72878400705D56068E968DE
:102A600020F4E060084360602878000706D56068BD
:102A7000296920F4605040EAC100606000F038F835
:102A80006168084AC1F30311515CC84006490860F7
:102A900006480068FFF706FF0020C2E7002002405A
:102AA00000100240064C00080C000020040000202A
:102AB0000448054900684968044AC1F30221515C91
:102AC000C84070470C00002000100240164C00085F
:102AD0000448054900684968044AC1F3C221515CB1
:102AE000C84070470C00002000100240164C00083F
:102AF0000E4A51680E4801F00C03042B11D0082B2C
:102B00000FD10C48C1F38343C903C05C0AD5516897
:102B1000084AC1F34041921E515C054A5043B0FB44
:102B2000F1F070470449484370470000001002402C
:102B300000127A00F64B000800093D002DE9F84F1D
:102B4000040070D02078C04DC00749D06868C0F339
:102B50008100012807D06868C0F38100022809D1EC
:102B60006868C00306D52868800339D560680028E6
:102B7000E7D035E06068B0F5803F0BD010B1B0F51C
:102B8000A02F11D0286820F480302860286820F415
:102B9000802002E0286840F480302860606890B1AE
:102BA000FFF760FE06460AE0286840F480202860AF
:102BB000F0E700BFFFF756FE801B642873D8286833
:102BC0008003F7D50CE0FFF74DFE064605E000BF99
:102BD000FFF748FE801B6428F0D828688003F7D4EC
:102BE00020789A4E80074FF001094FF0000839D540
:102BF000686810F00C0F07D06868C0F381000228E5
:102C000009D16868C00306D42868800714D52069F4
:102C1000012808D110E02069B0B1C6F80090FFF794
:102C200021FE074605E00AE1FFF71CFEC01B022853
:102C3000C4D828688007F7D52868616920F0F800B3
:102C400040EAC10028600DE0C6F80080FFF70AFEE8
:102C5000074604E0FFF706FEC01B022823D82868B9
:102C60008007F7D4207800072CD57948A169D9B11D
:102C7000C0F80090FFF7F6FD074604E0FFF7F2FD0D
:102C8000C01B02280FD8686A8007F7D571484FF437
:102C9000FA510068B0FBF1F0009000BF0098411EAF
:102CA0000091FAD20EE080E0C0F80080FFF7DAFD74
:102CB000074604E0FFF7D6FDC01B022875D8686AF6
:102CC0008007F7D42078400760D5E8690027C00066
:102CD00008D4E86940F08050E861E869012700F015
:102CE000805000905C480168C90513D40168834690
:102CF00041F480710160FFF7B5FD824606E000BF38
:102D0000FFF7B0FDA0EB0A0064284ED8DBF8000006
:102D1000C005F5D5E06801280AD008B1052813D010
:102D2000286A20F001002862286A20F0040002E0EE
:102D3000286A40F001002862E06841F2883B98B1BF
:102D4000FFF790FD82460BE0286A40F004002862FD
:102D5000EEE700BFFFF786FDA0EB0A0159455AD800
:102D6000286A8007F6D50CE0FFF77CFD824605E077
:102D7000FFF778FDA0EB0A0159454CD8286A800777
:102D8000F6D41FB1E86920F08050E861E06988B3AB
:102D90006968C1F38101022944D00228C6F8608025
:102DA00004D0FFF75FFD044638E034E0FFF75AFD3A
:102DB000074604E0FFF756FDC01B02282BD8286801
:102DC0008001F7D4206AB0F5803F05D16868A1681A
:102DD00020F4003008436860D4E9080108436968BA
:102DE00021F4741108436860C6F86090FFF73AFD5B
:102DF000044606E025E000BFFFF734FD001B022873
:102E000009D828688001F7D51BE000BFFFF72AFD2D
:102E1000001B022802D90320BDE8F88F2868800132
:102E2000F4D40EE00128F7D06868226A00F48031FB
:102E3000914204D1616A00F47010884201D00120EF
:102E4000EAE70020E8E700000010024000004242EC
:102E5000800442420C0000200070004010B50400C5
:102E600011D0022084F851002068016821F040014F
:102E70000160204600F062F80020606584F851008F
:102E800084F8500010BD012010BD70B5040009D0B9
:102E9000606A002540B125616561A56294F8510022
:102EA00040B10CE0012070BD6068B0F5827FF4D0C5
:102EB000E561F2E784F85050204600F061F8022006
:102EC00084F851002068016821F040010160A08869
:102ED000218900F4827001F404410843A18901F4BE
:102EE00000610843217C01F002010843217D01F0CB
:102EF00001010843218B01F400710843217F01F097
:102F00003801084394F8201001F080010843218D16
:102F100001F40051084321680860A069042101EA16
:102F20001040216848602068C16921F40061C161D6
:102F30006565012084F85100002070BD0B4A0168CE
:102F40000B48914206D1816921F480518161E021D1
:102F5000084808E0084A914207D1C16921F480413C
:102F6000C16191000548FFF7F7BA70470030014092
:102F7000001002400008014000380040000C0140F1
:102F800030B585B000240094019402940394254D3B
:102F90000368254802210322AB421AD1836943F416
:102FA00080538361836903F480530493836943F0FE
:102FB0000403836180691D4D00F004000490A0208B
:102FC000CDE90001039269462846FFF751FB4020F6
:102FD0001EE0174DAB4222D1C36943F48043C36165
:102FE000C36903F480430493836943F00803836156
:102FF0008069104D00F0080004904FF42040CDE9A6
:103000000001039269462846FFF732FB4FF48040E7
:10301000CDE90004694628460294FFF729FB05B074
:1030200030BD0000003001400010024000080140A7
:1030300000380040000C01402DE9F84F044690F89C
:1030400051001D4616460F46012838D160684FF0E2
:103050000408B0F5827F01D1A06830B3FFF702FC0D
:103060008246002F75D0002E73D094F850000128AE
:1030700025D04FF0010984F8509084F851804FF02A
:103080000008C4F85480A763A687E687C4F8308098
:10309000A4F83480A4F83680C4F84080C4F8448092
:1030A000A068B0F5004F0CD015E084F85180009373
:1030B00013460A46204600F01CF9BDE8F88F0220AE
:1030C000FBE72068016821F0400101602068016889
:1030D00021F48041016020680168490603D4016839
:1030E00041F040010160E068C0B134E020688168CF
:1030F000C90709D0007BA16B0870A06B401CA063BE
:10310000E08F401EE08709E0FFF7ACFBA0EB0A0070
:10311000A84202D3681C01D032E085B3E08F0028BA
:10312000E4D11BE020688168C90709D0C068A16BA1
:103130000880A06B801CA063E08F401EE0870AE03F
:10314000FFF790FBA0EB0A00A84203D3681C02D053
:1031500016E012E09DB1E08F0028E3D152462946E7
:10316000204600F0C4FC08B12020606584F851902E
:1031700084F85080606D00289FD001209DE7FFE714
:1031800084F8519084F85080032096E72DE9F84F99
:10319000984616468A460446FFF764FB814694F833
:1031A000510001281ED1BAF1000F73D0002E71D04A
:1031B00094F85000012815D0012784F8507003209E
:1031C00084F8510000256565C4F830A0A686E6861F
:1031D000A563A587E58765642564A068B0F5004F01
:1031E00003D00CE00220BDE8F88F2068016821F0D0
:1031F000400101602068016841F48041016020685D
:103200000168490603D4016841F040010160E068AB
:10321000B0F5006F606803D048B3012E27D047E0B7
:1032200008B1012E1FD1206B21680088C86006E01C
:1032300020688168890709D5216B0988C160206BE6
:10324000801C2063E08E401EE0860CE0FFF70AFB46
:10325000A0EB0901414503D3B8F1FF3F03D035E0AE
:10326000B8F1000F32D0E08E0028E1D123E0206BCE
:1032700021680078087306E02068816889070AD50C
:10328000216B09780173206B401C2063E08E401E87
:10329000E0860DE02BE0FFF7E5FAA0EB09014145E0
:1032A00003D3B8F1FF3F03D010E0B8F1000F0DD009
:1032B000E08E0028E0D14A464146204600F045FC19
:1032C00008B120206065A06830B109E084F8517031
:1032D00084F85050032086E72068C1688068009019
:1032E00084F8517004F8505F60680028F3D0012022
:1032F00079E72DE9FF4F81B01D46934604464FF014
:1033000001090E9EFFF7AEFA074694F85100616876
:10331000012806D0B1F5827F3CD1A168C9BB042841
:1033200038D10298002871D0BBF1000FFBD0002DDE
:10333000F9D094F8500001282CD04FF0010A84F8FD
:1033400050A094F85100042802D0052084F85100C0
:103350004FF00008C4F85480C4F838B0E587A5875A
:1033600002992163E586A586C4F84080C4F84480AC
:1033700020680168490603D4016841F040010160FA
:10338000E068B0F5006F606808D0F0B3012D49D057
:1033900081E0FFE7022005B0BDE8F08F08B1012D04
:1033A00039D1206B21680088C860206B801C2063A5
:1033B000E08E401EE0862EE02068816889070FD5E8
:1033C000E18E69B1B9F1010F0AD1216B0988C160A1
:1033D000206B801C2063E08E401EE0864FF00009C9
:1033E00020688168C9070CD0E18F51B1C068A16B1A
:1033F0000880A06B801CA063E08F401EE0874FF028
:103400000109FFF72FFAC01B01E00BE067E0B042B3
:1034100001D3701C50D1E08E0028CDD1E08F002860
:10342000CAD13EE0206B216800780873206B401CF5
:103430002063E08E401EE0862DE0206881688907C9
:103440000FD5E18E69B1B9F1010F0AD1216B09786D
:103450000173206B401C2063E08E401EE0864FF01D
:10346000000920688168C9070CD0E18F51B1C0689C
:10347000A16B0870A06B401CA063E08F401EE0872A
:103480004FF00109FFF7EEF9C01BB04202D3701CE8
:1034900001D011E086B1E08E0028CED1E08F002867
:1034A000CBD13A463146204600F04FFB50B12020A8
:1034B000606584F8508012E084F851A084F8508050
:1034C000032068E7A06818B92068C1688068009088
:1034D00084F851A084F85080606D0028F1D001205C
:1034E00059E710B5401EB0F1807F01D3012010BD17
:1034F0004FF0E02460610F21601700F06FFD0020A5
:10350000A06107202061002010BD70B5040004D028
:1035100094F84100002510B106E0012070BD84F848
:103520004050204600F024F8242084F84100206810
:10353000C16821F40051C160204600F0D7FB20682B
:10354000016921F4904101612068416921F02A015B
:1035500041612068C16841F40051C1606564202068
:1035600084F8410084F842006563002070BD0000CB
:1035700030B585B00024009401940294039400684F
:103580001449884224D11448816941F48041816101
:10359000816901F480410491816941F004018161F4
:1035A00080690E4D00F0040004904FF4007000900C
:1035B000022001900320039069462846FFF758F83F
:1035C0002815CDE90004694628460294FFF750F813
:1035D00005B030BD00380140001002400008014035
:1035E0002DE9F843044690F84100984616460D46EA
:1035F000202802D00220BDE8F88385B17EB10020EA
:103600006064212084F84100FFF72CF9A6848146EC
:10361000E684A0682027B0F5805F02D003E0012097
:10362000E9E7206910B12E4600250EE000260CE0E7
:103630008021204600F0B6FBA8B9C6B116F8010BF0
:1036400021684860E08C401EE084E08C4B464FF0DF
:103650000002CDF800800028EAD14FF0400120465A
:1036600000F0A0FB40B184F841700320C3E735F8B7
:10367000020BC0F30800E3E784F841700020BAE7CA
:10368000FEE700002DE9F04107460D460F4800F027
:10369000D3FF10B10120BDE8F0810C4C94F8B622A4
:1036A0008AB104F5DB710E463846FCF7A1FF94F8A9
:1036B000B602288000253D544FF480713046FCF757
:1036C000DCFF84F8B6520020E5E70000100000207F
:1036D00070B50C00054614D002E00A20FEF72AFF60
:1036E00000F010F80028F8D14FF4427000F094FB7D
:1036F000172806D122462946BDE87040002001F077
:10370000E7B870BD10B54FF4427000F085FB30B1E2
:10371000132869D017287CD01C287BD0D1E0002347
:1037200041F690720121184601F060F900284FF02F
:103730005C0165A009D0FCF731FF002831D05C2185
:1037400061A0FCF72BFF401C2CE0FCF727FF28B101
:103750005C215DA0FCF722FF401C00E05AA02F2155
:10376000FCF71CFF00284FF05C0157A00BD0FCF7C2
:1037700015FF28B15C2154A0FCF710FF401C00E0AD
:1037800051A02F2104E0FCF709FF28B15C214EA0D5
:10379000FCF704FF401C00E04BA00146402252A071
:1037A00087E049A02F21FCF7F9FE00284FF05C01CB
:1037B00045A00BD0FCF7F2FE28B15C2142A0FCF73B
:1037C000EDFE401C00E040A02F2104E0FCF7E6FEE7
:1037D00028B15C213CA0FCF7E1FE401C00E03AA0CF
:1037E0000146442246A064E042F2B8224A49002041
:1037F00000F038FD01284FF05C0133A00BD0FCF73E
:10380000CDFE002833D05C212FA0FCF7C7FE401C62
:103810002EE051E052E0FCF7C1FE28B15C212AA065
:10382000FCF7BCFE401C00E027A02F21FCF7B6FEF1
:1038300000284FF05C0124A00BD0FCF7AFFE28B1AC
:103840005C2121A0FCF7AAFE401C00E01EA02F2155
:1038500004E0FCF7A3FE28B15C211BA0FCF79EFE50
:10386000401C00E018A001464E222CA021E016A02A
:103870002F21FCF793FE00284FF05C0112A00BD023
:10388000FCF78CFE28B15C210FA0FCF787FE401CE2
:1038900000E00DA02F2104E0FCF780FE28B15C21A0
:1038A00009A0FCF77BFE401C00E007A00146522265
:1038B00020A0FCF73DFD04E0002010BD002000F03A
:1038C00097FC012010BD00002E2E5C696E7465729D
:1038D000666163655C6574685C496E745F773535F5
:1038E00030302E63000000005B25733A25645DB420
:1038F000B4BDA8736F636B6574B3C9B9A60000004B
:103900005B25733A25645DB4B4BDA8736F636B65C2
:1039100074CAA7B0DC000000D40200205B25733A13
:1039200025645DC1ACBDD3B7FECEF1B6CBB3C9B98A
:10393000A60D0A005B25733A25645DC1ACBDD3B703
:10394000FECEF1B6CBCAA7B0DC0D0A002DE9F041DE
:1039500086B000242E480094019402940394816957
:1039600041F010018161816901F0100104918169C8
:1039700041F020018161816901F020010491816998
:1039800041F004018161816901F0040104918169C0
:1039900041F00801816180691E4F00F00800049029
:1039A000012214213846FEF758FF0022082138462C
:1039B000FEF753FFDFF86080012208214046FEF742
:1039C0004CFF00224FF440714046FEF746FF78144A
:1039D000CDE90004694611480294FEF749FE1C2017
:1039E00001250226CDE90005CDE9024669463846A3
:1039F000FEF73EFE4FF44270CDE90005CDE90246E8
:103A000069464046FEF734FE06B0BDE8F08100008E
:103A10000010024000080140000C0140001001406D
:103A2000104810B50E4901604FF4827141600021C9
:103A30008160C1604FF400720161C0E9051210227B
:103A4000C0E90721416281620A21C162FFF71DFAC4
:103A5000002803D0BDE81040FEF76ABD10BD00008D
:103A60000030014030030020104810B50E490160BD
:103A70004FF48271416000218160C1604FF4007297
:103A80000161C0E905120822C0E907214162816293
:103A90000A21C162FFF7F9F9002803D0BDE8104000
:103AA000FEF746BD10BD000000380040880300202E
:103AB0000C4810B50A4901604FF4E1314160002122
:103AC00081600C22C160C0E904128161C161FFF70D
:103AD0001CFD002803D0BDE81040FEF729BD10BD35
:103AE00000380140E0030020FEE7FEE77047F8B52C
:103AF000044640684FF48273984217D1A0684FF48F
:103B00008065B0F5004F01D0A8420FD1206806684B
:103B100026F0400606606068984207D1A068A84277
:103B200004D100920B460022012103E000920B46D3
:103B300000228021204600F023F8002804D0606D88
:103B400040F0200060650320F8BDF8B515460E462C
:103B50000B46009204460122022100F011F840B900
:103B60003346002280212046009500F009F8002805
:103B700004D0606D40F0200060650320F8BD0000B7
:103B80002DE9F8431E46914688460446089DFEF7F7
:103B900069FE401B351AFEF765FE0746254800689A
:103BA000C0F3CB30684338E0701C37D0FEF75AFEC4
:103BB000C01BA84203D215B1009860B32CE0206866
:103BC000416821F0E00141606068B0F5827F0BD16F
:103BD000A068B0F5004F02D0B0F5806F04D1206826
:103BE000016821F040010160A06AB0F5005F09D1D1
:103BF0002068016821F4005101602068016841F4E7
:103C000000510160012084F85100002084F8500028
:103C10000320BDE8F8830025401E009020688168DD
:103C200038EA010004D000214945BDD10020F0E769
:103C30000121F9E70C0000207047FEF719BE30B5EE
:103C40008FB028216846FCF73AFD14210AA8FCF73A
:103C500036FD01210804CDE900100024029402255C
:103C60000491CDE907504FF4E01009906846FEF743
:103C700065FF08B172B6FEE70F20CDE90A054FF4E3
:103C80008060CDE90C4002210AA80E94FEF77AFE6E
:103C9000002801D072B6FEE70FB030BD7047016852
:103CA0000C3151E8002F22F4907241E80023002BE0
:103CB000F5D10168143151E8002F22F0010241E8EA
:103CC0000023002BF5D1016B012909D101680C31CA
:103CD00051E8002F22F0100241E80023002BF5D11B
:103CE000202180F8421000210163704770B504461E
:103CF00000680169E26821F44051114301612169C2
:103D0000A0680843616908432168CA6841F20C63EE
:103D10009A430243CA6020684169A26921F4407154
:103D2000114341611E492068884202D1FEF7D0FE4E
:103D300001E0FEF7BDFE00EBC00101EB0012606880
:103D400064218000B2FBF0F3B3FBF1F36FF01806CF
:103D50007343B2FBF0F5B2FBF0F605EB83053223BB
:103D600003EB0515B5FBF1F5B6FBF1F605F0F00533
:103D700005EB0615B2FBF0F6B2FBF0F0B0FBF1F08C
:103D80006FF01802504306EB800003EB0010B0FB0D
:103D9000F1F0216800F00F002844886070BD000039
:103DA000003801402DE9F843984617460D46044671
:103DB000089E24E0701C22D0FEF754FDA0EB080002
:103DC000B0421AD8CEB12068C168490717D5802DF6
:103DD00015D0402D13D00168C94309070FD40168DD
:103DE0000025406800902046FFF759FF08206064D6
:103DF00084F840500120BDE8F8830320FBE72068E9
:103E0000006835EA000004D00020B842D2D000207B
:103E1000F1E70120F9E7FEE7F8B5144C0546E06844
:103E2000804760698047616AC5F30740C5F307268C
:103E300099B1A26A8AB18DF800008DF801608DF801
:103E40000250032168469047E06980470546A06913
:103E50008047206980472846F8BD216A8847216A43
:103E600030468847216AE8B28847EDE7F40200202F
:103E70002DE9F8431A4C05461746E0688846804706
:103E800060698047616AC5F30740C5F30726A1B1A1
:103E9000A26A92B18DF800008DF801608DF8025091
:103EA000032168469047626A394640469047A069B8
:103EB000804720698047BDE8F883216A8847216AE6
:103EC00030468847216AE8B28847002505E0E06966
:103ED000804708F805006D1CADB2BD42F7D3E6E798
:103EE000F4020020F8B5164C05460E46E0688047FF
:103EF00060698047A26A45F004058AB1280C8DF8F4
:103F00000000280A8DF801008DF802508DF803603A
:103F1000042168469047A069804720698047F8BD22
:103F2000216AC5F307408847216AC5F307208847FF
:103F3000216AE8B28847216A30468847EBE70000EB
:103F4000F4020020F8B51A4C05461646E0680F4604
:103F5000804760698047A26A45F004059AB1280C41
:103F60008DF80000280A8DF801008DF80250032119
:103F700068469047A26A314638469047A069804714
:103F800020698047F8BD216AC5F307408847216A48
:103F9000C5F307208847216AE8B28847002504E076
:103FA000216A785D88476D1CADB2B542F8D3E5E76C
:103FB000F4020020490050EAC12018BF04204A0D35
:103FC00018BF40F0010040F2FF72B2EB515F08BF32
:103FD00040F00200012808BF052070470907090EBC
:103FE000002804DB00F1E02080F80014704700F0A6
:103FF0000F0000F1E02080F8141D704730380A28C7
:1040000001D201207047002070471FB5046A0121CA
:1040100001A8A047002800D0012004B010BD000076
:104020002DE9F8430F464FF4C0711D4690460446F3
:104030008B4205D3816A10A088470220BDE8F8832F
:1040400004F136000646FCF718FB1E208DF8000030
:104050008DF801706B1C276A324602216846B8470A
:1040600008B10120EAE72A4604F137014046FCF78F
:10407000BFFA0020E2E700006C6C636336383A2038
:104080006C656E206973206F766572203338332E2D
:104090000A0000002DE9F8430E464FF4C0711D469A
:1040A000904604468B4205D3816A11A088470220BE
:1040B000BDE8F88304F136000746FCF7DEFA1D2060
:1040C0008DF80000300A8DF801008DF802606B1C3D
:1040D000266A3A4603216846B04708B10120E7E75F
:1040E0002A4604F137014046FCF782FA0020DFE758
:1040F0006C6C636336383A206C656E206973206F90
:10410000766572203338332E0A0000002DE9F04125
:104110000E464FF4C0711D46904604468B4205D3AF
:10412000816A0EA088470220BDE8F08104F13600C4
:104130000746FCF7A2FA84F836602A46414604F1A5
:104140003700FCF755FA0023246A1A46691C3846E2
:10415000A0470028E8D00120E6E700006C6C63630C
:1041600036383A206C656E206973206F7665722050
:104170003338332E0A0000002DE9F0411D469046E9
:104180000E460446B3F5BF7F05D3816A11A0884768
:104190000220BDE8F08104F136004FF4C0710746FB
:1041A000FCF76BFA0D2084F83600300A84F83700EB
:1041B00084F838602A46414604F13900FCF718FAC1
:1041C0000023246A1A46E91C3846A0470028E0D09C
:1041D0000120DEE76C6C636336383A206C656E2034
:1041E0006973206F766572203338312E0A00000023
:1041F00070B50446082802D94FF0FF3070BD4FF467
:10420000847000EB441005461021FFF76BFE284632
:10421000FFF702FE0028FAD14FF4027000EB4410C1
:104220001F21FFF75FFE0D490120A0404A8882430D
:104230004A808A8882438A800949002021F8140034
:104240000649891D08554FF4427000EB441420467E
:10425000FFF7E2FD0028FAD1012070BDDE02002048
:10426000280400202DE9F04117460E460446082890
:1042700003D94FF0FF30BDE8F08160014FF0010835
:104280000830FFF7C9FD00F00F00012802D06FF0E1
:104290000400F0E74FF4427000EB44100546FFF7CE
:1042A000BBFD132802D06FF00200E4E7307871788C
:1042B00001EB0020B17801EB0020F17801EB002048
:1042C000411C2CD058B36FB340F6084000EB4410AB
:1042D00004223146FFF736FE41F20800390A00EBAE
:1042E0004410FFF7FFFD41F20810F9B200EB441053
:1042F000FFF7F8FD4FF4847000EB441006460421EC
:10430000FFF7F0FD3046FFF787FD0028FAD1164988
:1043100008FA04F0498808421AD00020ABE76FF091
:104320000B00A8E76FF00A00A5E72046FFF774FD31
:10433000000706D520460821FFF7D4FD6FF00C00DA
:1043400099E72846FFF768FD30B96FF0030092E760
:104350004FF4027000EB44142846FFF75DFD172868
:10436000E3D1012087E70000DE02002013B54FF6FD
:10437000FF73012269460248FFF732F900981CBD1D
:10438000E00300202DE9F04142F2080101EB401565
:1043900042F20811002601EB40142846FFF73CFDCD
:1043A00007462046FFF738FD00EB072007043F0CC7
:1043B00009D02846FFF730FD06462046FFF72CFDC2
:1043C00000EB062086B2BE42E7D13046BDE8F08160
:1043D000002070470020704710B504464FF400518C
:1043E0000248FEF735FA2070002010BD0010014091
:1043F0000FB410B503A90298FBF794FF10BC5DF849
:1044000014FBFEF797B80000202823D00CDC04280A
:104410001AD004DC012813D002280FD112E008289A
:1044200014D010280AD113E0402815D0802815D0C8
:10443000B0F5807F14D0B0F5007F13D00BA012E050
:1044400010A010E015A00EE01AA00CE021A00AE0D8
:104450002AA008E030A006E036A004E03BA002E07D
:1044600040A000E046A0FFF7C3BF00006C6C636390
:1044700036383A20756E6B6E6F776E20636F6465A9
:104480002E0A00006C6C636336383A206972712022
:10449000747820646F6E652E0A0000006C6C636394
:1044A00036383A2069727120727820646F6E652EFA
:1044B0000A0000006C6C636336383A206972712020
:1044C000707265616D626C652064657465637465A6
:1044D000642E0A006C6C636336383A20697271206E
:1044E00076616C69642073796E6320776F726420E3
:1044F00064657465637465642E0A00006C6C6363A4
:1045000036383A206972712076616C69642068657A
:10451000616465722E0A00006C6C636336383A2061
:1045200069727120686561646572206572726F726C
:104530002E0A00006C6C636336383A206972712071
:10454000637263206572726F722E0A006C6C636313
:1045500036383A206972712063616420646F6E6539
:104560002E0A00006C6C636336383A206972712041
:104570006361642064657465637465642E0A000079
:104580006C6C636336383A206972712074696D65AA
:104590006F75742E0A0000000020704700207047DD
:1045A00010B5054B30B1012208211846FEF755F928
:1045B000002010BD0022F7E70008014010B50348B5
:1045C000FEF74CFC002800D0012010BD3003002075
:1045D000002070472DE9F047154E91460D46804664
:1045E0001C46002210213046FEF737F94FF47A7747
:1045F00035B1AAB23B4641460E48FEF7C7FD38B971
:1046000074B1A2B23B4649460A48FEF715FD38B1DF
:10461000012210213046FEF720F90120BDE8F08785
:10462000012210213046FEF718F90020F6E70000BD
:1046300000080140300300202DE9FE43040006D0AD
:1046400094F83000012804D00320BDE8FE83022046
:10465000FBE7002703236A46122120460097FFF755
:10466000D4FC10B15EA0A16AA7E0BDF8010002234E
:1046700045BA194620460DF10102FFF747FD10B17A
:104680005FA0A16A99E084F83470680705D5E36AF1
:104690001BB10022114604209847280705D5E36A7C
:1046A0001BB10022114608209847E80605D5E36AA9
:1046B0001BB10022114610209847A80605D5E36AD1
:1046C0001BB1002211462020984768064FF00106D2
:1046D00007D5E36A1BB1002211464020984784F8B1
:1046E0003460280607D5E36A1BB1002211468020FA
:1046F000984784F83260E80508D5E36A23B10022C0
:1047000011464FF48070984784F83360A8052FD580
:104710008DF80870012302AA4FF412612046FFF7BA
:104720002BFD10B13FA0A16A47E040F644180123D9
:1047300001AA41462046FFF7ADFC10B141A0A16A95
:104740003BE09DF80400012340F002008DF80400D6
:1047500001AA41462046FFF70FFD0028E2D1E36A97
:1047600023B1002211464FF40070984784F8356059
:10477000E80707D0E36A1BB10022114601209847E1
:1047800084F83160A80724D503236A461321204604
:104790000097FFF73AFC10B132A0A16A0DE09DF836
:1047A000015004F5DB729DF802102B461646204698
:1047B000FFF736FC20B1A16A34A08847012044E706
:1047C000E36A33B194F8340028B100221146022084
:1047D0009847002039E784F8B6522A463146F6E772
:1047E0006C6C636336383A20676574206972712097
:1047F000737461747573206661696C65642E0A0058
:104800006C6C636336383A20636C65617220697240
:104810007120737461747573206661696C65642EB0
:104820000A0000006C6C636336383A207772697452
:1048300065207265676973746572206661696C656D
:10484000642E0A006C6C636336383A2072656164CA
:10485000207265676973746572206661696C65644E
:104860002E0A00006C6C636336383A20676574204A
:1048700072782062756666657220737461747573F0
:10488000206661696C65642E0A0000006C6C6363CD
:1048900036383A20726561642062756666657220FA
:1048A0006661696C65642E0A00000000FDF7E8FF90
:1048B000FFF7C5F9FFF74AF8FFF7B2F8FFF7D4F8AA
:1048C000FFF7F6F8FDF71AFE6420FDF733FEF9E76F
:1048D0002DE9F05F15468B460646082803D94FF0B0
:1048E000FF30BDE8F09F700101240830FFF794FA13
:1048F00000F00F00012801D0A01FF2E775B14FF4BE
:10490000427000EB46100746FFF786FA6FF0060A82
:10491000172806D01C2804D05046E2E76FF00D009F
:10492000DFE7DFF8C480B440B8F80400044213D0D5
:104930004FF4027000EB46108146FFF76DFA00F06D
:104940001F00C10624D548461021FFF7CBFAB8F85E
:104950000410A143A8F8041041F6087000EB4610BB
:10496000FFF75AFA4FF6FF7101EA8020854200D91D
:1049700005463046FFF706FD81463846FFF74CFAFC
:1049800017280DD01C280BD03046FFF731FCC3E7A9
:1049900000070BD53046FFF72BFC6FF00C00A0E7AB
:1049A000B8F80200044203D04D4501D9002098E731
:1049B0004D45DED82A465946304600F0A5F84FF45A
:1049C000847000EB461006462021FFF78BFA304634
:1049D000FFF722FA0028FAD1B8F8041028460C4351
:1049E000A8F804407DE70000DE0200202DE9F8432E
:1049F0001D4617460E460446082803D94FF0FF30DF
:104A0000BDE8F883012E08D0022E0ED0032E0CD064
:104A1000042E0AD06FF00400F2E7042269464FF436
:104A20007060FFF725FA009848B169076FF005003C
:104A3000E6D49DB1012E05D0022E0FD106E06FF015
:104A40000200DDE715F0210FDAD007E0A90601D555
:104A50002906D5D5E90601D52906D1D52046FFF787
:104A6000C7FB600105F0F0014FF001083143083049
:104A7000FFF738FA224E57B93788781C80B2A0F574
:104A80007F413080F03902D14FF4404030804FF404
:104A90008160390A00EB4410FFF724FA4FF4A1605B
:104AA000F9B200EB4410FFF71DFA4FF4847000EBED
:104AB000441007460121FFF715FA3846FFF7ACF915
:104AC0000028FAD108FA04F0718805F00102814348
:104AD000A2400A437280B1888143B1800949002015
:104AE00021F814000649891D08554FF4427000EB67
:104AF00044152846FFF790F90028FAD060B27FE706
:104B0000DE020020280400202DE9F0475FEA0208B9
:104B10008946064626D042F2085000EB4615284644
:104B2000FFF77AF9074642F2084000EB46142046A8
:104B3000FFF772F907EB002087B2380200EB46104E
:104B4000424649461030FFF7FDF907EB080086B2F0
:104B5000310A2046FFF7C6F9F1B22846BDE8F04712
:104B6000FFF7C0B9BDE8F087007870470170704763
:104B700070477047012208210148FDF76EBE000012
:104B8000000C0140002208210148FDF766BE00002C
:104B9000000C014010B500290AD00878002807D081
:104BA00005487844FBF7B2FD002801D0002010BD75
:104BB0000248784410BD0000A60100009E010000DC
:104BC00010B500290AD00878002807D00548784495
:104BD000FBF79CFD002801D0002010BD024878445E
:104BE00010BD0000960100008E010000FCF7C2B964
:104BF000FCF7F6BA010202030405060708090A0BCE
:104C00000C0D0E0F1010000000000000000001024B
:104C10000304060708090000000001020304040061
:104C20000008000000000000000200010000100069
:104C300000000000000000003031323334353637D8
:104C400038394142434445464030580030313233D0
:104C500034353637383961626364656640307800D0
:104C600030313233343536373839616263646566E2
:104C70007870003031323334353637383941424379
:104C80004445465850003A7474003A7474003A74BB
:104C90007400000002400000000000A000000000BE
:104CA00005400000000000C8000000000C400000AB
:104CB0000000409C00000000194000000020BCBE25
:104CC0000000000034400000BFC91B8E000000043B
:104CD000B5400000504BCFD06607E2CF0100000086
:104CE0006C4100003E8251AADFEEA73401000000B3
:104CF000D9420000DCB5A0E23A301F97FFFFFFFF6A
:104D0000B4450000FD25A0C8E9A3C14FFFFFFFFF88
:104D1000FF3F00000000008000000000FF3F000097
:104D20000000008000000000744E00080000002019
:104D30003003000028010008DC4E0008300300208A
:104D4000680A0000840100081C0000004300000005
:104D5000F8FFFFFF0C0000000E0000000F00000035
:104D60002E0000001001000043000000F8FFFFFFCC
:104D7000004040404040404040404141414141406E
:104D80004040404040404040404040404040404023
:104D900040050202020202020202020202020202B2
:104DA00002202020202020202020200202020202B7
:104DB000020290909090909010101010101010100F
:104DC000101010101010101010101010020202021B
:104DD000020288888888888808080808080808085F
:104DE000080808080808080808080808020202025B
:104DF0004000000000000000000000000000000073
:104E000000000000000000000000000000000000A2
:104E10000000000000000000000000000000000092
:104E20000000000000000000000000000000000082
:104E30000000000000000000000000000000000072
:104E40000000000000000000000000000000000062
:104E50000000000000000000000000000000000052
:104E60000000000000000000000000000000000042
:104E7000000000003201821013127A139D451B08B6
:104E800099041AA10413D5431B08D1042AD908197F
:104E9000102ABD1419041303441B08F1141A09083D
:104EA00001FF01FF018A1DC0A81F58042D01FFFF4B
:104EB000FF0C10087A6E780D8C96100214C0500802
:104EC0000102573535303013714B1B0873041A85B6
:0C4ED000041A75041A69041A6D04011814
:04000005080000ED02
:00000001FF
